:020000040800F2
:100000000000032049A4000839A3000899A30008B0
:100010009BA300089DA300089FA300080000000008
:1000200000000000000000000000000071640008F3
:10003000A1A3000800000000116500087565000814
:1000400099A4000899A4000899A4000899A400089C
:1000500099A4000899A40008ADA30008B7A300085C
:10006000A3A3000899A4000899A4000899A4000873
:1000700099A4000899A4000899A4000899A400086C
:1000800099A4000899A4000899A4000899A400085C
:10009000C1A3000899A4000899A4000899A4000825
:1000A00099A4000899A4000899A4000899A400083C
:1000B00099A4000899A4000899A40008D1A30008F5
:1000C000E1A3000899A4000899A4000899A40008D5
:1000D00099A4000899A4000899A4000899A400080C
:1000E000F1A3000899A4000899A40008FDA3000842
:1000F0000DA4000899A4000899A4000899A4000878
:1001000099A4000899A4000899A4000899A40008DB
:1001100099A4000899A4000899A4000899A40008CB
:100120001DA4000899A4000899A4000899A4000837
:1001300099A4000899A4000899A4000899A40008AB
:1001400099A4000899A4000899A4000899A400089B
:1001500099A4000899A4000899A4000899A400088B
:1001600099A4000899A4000899A4000899A400087B
:1001700099A4000899A4000899A4000800000000B0
:1001800099A4000899A4000899A4000899A400085B
:1001900099A4000899A4000899A4000899A400084B
:0C01A00099A4000899A4000899A4000884
:1001B00010B5054C237833B9044B13B10448AFF3A1
:1001C00000800123237010BDB40000200000000057
:1001D000D4BB000808B5034B1BB103490348AFF378
:1001E000008008BD00000000B8000020D4BB00085B
:1001F00081F0004102E000BF83F0004330B54FEAD8
:1002000041044FEA430594EA050F08BF90EA020F44
:100210001FBF54EA000C55EA020C7FEA645C7FEAD7
:10022000655C00F0E2804FEA5454D4EB5555B8BFFA
:100230006D420CDD2C4480EA020281EA030382EA6B
:10024000000083EA010180EA020281EA0303362DFD
:1002500088BF30BD11F0004F4FEA01314FF4801CD0
:100260004CEA113102D0404261EB410113F0004FE2
:100270004FEA03334CEA133302D0524263EB430399
:1002800094EA050F00F0A780A4F10104D5F1200E37
:100290000DDB02FA0EFC22FA05F2801841F1000192
:1002A00003FA0EF2801843FA05F359410EE0A5F166
:1002B00020050EF1200E012A03FA0EFC28BF4CF097
:1002C000020C43FA05F3C01851EBE37101F000454D
:1002D00007D54FF0000EDCF1000C7EEB00006EEB5A
:1002E0000101B1F5801F1BD3B1F5001F0CD34908E4
:1002F0005FEA30004FEA3C0C04F101044FEA44523B
:1003000012F5800F80F09A80BCF1004F08BF5FEAC1
:10031000500C50F1000041EB045141EA050130BDA1
:100320005FEA4C0C404141EB010111F4801FA4F144
:100330000104E9D191F0000F04BF01460020B1FA99
:1003400081F308BF2033A3F10B03B3F120020CDAD1
:100350000C3208DD02F1140CC2F10C0201FA0CF0AF
:1003600021FA02F10CE002F11402D8BFC2F1200C14
:1003700001FA02F120FA0CFCDCBF41EA0C019040CA
:10038000E41AA2BF01EB0451294330BD6FEA040413
:100390001F3C1CDA0C340EDC04F11404C4F12002FE
:1003A00020FA04F001FA02F340EA030021FA04F310
:1003B00045EA030130BDC4F10C04C4F1200220FA67
:1003C00002F001FA04F340EA0300294630BD21FAA5
:1003D00004F0294630BD94F0000F83F4801306BF6B
:1003E00081F480110134013D4EE77FEA645C18BF5F
:1003F0007FEA655C29D094EA050F08BF90EA020FF6
:1004000005D054EA000C04BF1946104630BD91EAED
:10041000030F1EBF0021002030BD5FEA545C05D1F0
:100420004000494128BF41F0004130BD14F580042F
:100430003CBF01F5801130BD01F0004545F0FE41A3
:1004400041F470014FF0000030BD7FEA645C1ABFD8
:10045000194610467FEA655C1CBF0B46024650EA0F
:10046000013406BF52EA033591EA030F41F400213B
:1004700030BD00BF90F0000F04BF0021704730B5C1
:100480004FF4806404F132044FF000054FF0000196
:1004900050E700BF90F0000F04BF0021704730B557
:1004A0004FF4806404F1320410F0004548BF40422C
:1004B0004FF000013EE700BF42004FEAE2014FEA81
:1004C00031014FEA02701FBF12F07F4393F07F4F5C
:1004D00081F06051704732F07F4208BF704793F05F
:1004E0007F4F04BF41F40021704730B54FF4607472
:1004F00001F0004521F000411CE700BF50EA010275
:1005000008BF704730B54FF000050AE050EA01021D
:1005100008BF704730B511F0004502D5404261EB8D
:1005200041014FF4806404F132045FEA915C3FF4CE
:10053000D8AE4FF003025FEADC0C18BF03325FEA6B
:10054000DC0C18BF033202EBDC02C2F1200300FA1C
:1005500003FC20FA02F001FA03FE40EA0E0021FA41
:1005600002F11444BDE600BF70B54FF0FF0C4CF42F
:10057000E06C1CEA11541DBF1CEA135594EA0C0FE1
:1005800095EA0C0F00F0DEF82C4481EA030621EA1C
:100590004C5123EA4C5350EA013518BF52EA033557
:1005A00041F4801143F4801338D0A0FB02CE4FF009
:1005B0000005E1FB02E506F00042E0FB03E54FF039
:1005C0000006E1FB03569CF0000F18BF4EF0010E31
:1005D000A4F1FF04B6F5007F64F5407404D25FEA2D
:1005E0004E0E6D4146EB060642EAC62141EA5551E0
:1005F0004FEAC52040EA5E504FEACE2EB4F1FD0C22
:1006000088BFBCF5E06F1ED8BEF1004F08BF5FEA9F
:10061000500E50F1000041EB045170BD06F0004651
:1006200046EA010140EA020081EA0301B4EB5C04FE
:10063000C2BFD4EB0C0541EA045170BD41F48011F6
:100640004FF0000E013C00F3AB8014F1360FDEBF1B
:10065000002001F0004170BDC4F10004203C35DAF7
:100660000C341BDC04F11404C4F1200500FA05F37A
:1006700020FA04F001FA05F240EA020001F000421B
:1006800021F0004110EBD37021FA04F642EB060191
:100690005EEA430E08BF20EAD37070BDC4F10C04BB
:1006A000C4F1200500FA04F320FA05F001FA04F27F
:1006B00040EA020001F0004110EBD37041F100016B
:1006C0005EEA430E08BF20EAD37070BDC4F1200576
:1006D00000FA05F24EEA020E20FA04F301FA05F2DE
:1006E00043EA020321FA04F001F0004121FA04F286
:1006F00020EA020000EBD3705EEA430E08BF20EA56
:10070000D37070BD94F0000F0FD101F0004640008F
:1007100041EB010111F4801F08BF013CF7D041EA11
:10072000060195F0000F18BF704703F00046520015
:1007300043EB030313F4801F08BF013DF7D043EAE6
:100740000603704794EA0C0F0CEA135518BF95EA9C
:100750000C0F0CD050EA410618BF52EA4306D1D123
:1007600081EA030101F000414FF0000070BD50EA42
:10077000410606BF1046194652EA430619D094EACC
:100780000C0F02D150EA013613D195EA0C0F05D1B6
:1007900052EA03361CBF104619460AD181EA03010A
:1007A00001F0004141F0FE4141F470014FF00000C2
:1007B00070BD41F0FE4141F4780170BD70B54FF05D
:1007C000FF0C4CF4E06C1CEA11541DBF1CEA1355DD
:1007D00094EA0C0F95EA0C0F00F0A7F8A4EB0504BF
:1007E00081EA030E52EA03354FEA013100F08880B6
:1007F0004FEA03334FF0805545EA131343EA12637F
:100800004FEA022245EA111545EA10654FEA002633
:100810000EF000419D4208BF964244F1FD0404F5EC
:10082000407402D25B084FEA3202B61A65EB030548
:100830005B084FEA32024FF480104FF4002CB6EB05
:10084000020E75EB030E22BFB61A754640EA0C0085
:100850005B084FEA3202B6EB020E75EB030E22BFC5
:10086000B61A754640EA5C005B084FEA3202B6EB06
:10087000020E75EB030E22BFB61A754640EA9C00C5
:100880005B084FEA3202B6EB020E75EB030E22BF95
:10089000B61A754640EADC0055EA060E18D04FEA53
:1008A000051545EA16754FEA06164FEAC30343EAF3
:1008B00052734FEAC2025FEA1C1CC0D111F4801FC0
:1008C0000BD141EA00014FF000004FF0004CB6E7B9
:1008D00011F4801F04BF01430020B4F1FD0C88BF58
:1008E000BCF5E06F3FF6AFAEB5EB030C04BFB6EB63
:1008F000020C5FEA500C50F1000041EB045170BD56
:100900000EF0004E4EEA113114EB5C04C2BFD4EB82
:100910000C0541EA045170BD41F480114FF0000E06
:10092000013C90E645EA060E8DE60CEA135594EA82
:100930000C0F08BF95EA0C0F3FF43BAF94EA0C0F85
:100940000AD150EA01347FF434AF95EA0C0F7FF4FA
:1009500025AF104619462CE795EA0C0F06D152EA4E
:1009600003353FF4FDAE1046194622E750EA410632
:1009700018BF52EA43067FF4C5AE50EA41047FF443
:100980000DAF52EA43057FF4EBAE12E74FF0FF3CA8
:1009900006E000BF4FF0010C02E000BF4FF0010C79
:1009A0004DF804CD4FEA410C7FEA6C5C4FEA430CF2
:1009B00018BF7FEA6C5C1BD001B050EA410C0CBF41
:1009C00052EA430C91EA030F02BF90EA020F0020A3
:1009D000704710F1000F91EA030F58BF994208BF0A
:1009E00090422CBFD8176FEAE37040F001007047C7
:1009F0004FEA410C7FEA6C5C02D150EA013C07D11E
:100A00004FEA430C7FEA6C5CD6D152EA033CD3D068
:100A10005DF8040B704700BF8446104662468C4662
:100A20001946634600E000BF01B5FFF7B7FF002895
:100A300048BF10F1000F01BD4DF808EDFFF7F4FFBE
:100A40000CBF012000205DF808FB00BF4DF808ED49
:100A5000FFF7EAFF34BF012000205DF808FB00BF6C
:100A60004DF808EDFFF7E0FF94BF012000205DF88E
:100A700008FB00BF4DF808EDFFF7CEFF94BF012043
:100A800000205DF808FB00BF4DF808EDFFF7C4FF3C
:100A900034BF012000205DF808FB00BF4FEA410C85
:100AA0007FEA6C5C02D150EA013C0AD14FEA430C68
:100AB0007FEA6C5C02D152EA033C02D14FF00000A5
:100AC00070474FF0010070474A0011D212F5001232
:100AD00011D20DD56FF47873B3EB62520ED44FEA96
:100AE000C12343F0004343EA505323FA02F0704716
:100AF0004FF00000704750EA013002D14FF0FF3054
:100B000070474FF0000070474FEA4102B2F1E043F6
:100B100024BFB3F5001CDCF1FE5C0DD901F0004CE4
:100B20004FEAC0024CEA5070B2F1004F40EB830034
:100B300008BF20F00100704711F0804F21D113F160
:100B40003872BCBF01F00040704741F480114FEA99
:100B50005252C2F11802C2F1200C10FA0CF320FA22
:100B600002F018BF40F001004FEAC1234FEAD3233F
:100B700003FA0CFC40EA0C0023FA02F34FEA4303A9
:100B8000CCE77FEA625307D150EA01331EBF4FF032
:100B9000FE4040F44000704701F0004040F0FE404D
:100BA00040F40000704700BF53B94AB9002908BF9C
:100BB00000281CBF4FF0FF314FF0FF3000F072B93A
:100BC000ADF1080C6DE904CE00F006F8DDF804E0A4
:100BD000DDE9022304B070472DE9F047089E044682
:100BE0008846002B4BD18A42154667D9B2FA82F269
:100BF0004AB1C2F1200701FA02F320FA07F7954043
:100C000047EA030894404FEA154E230CB8FBFEF761
:100C10001FFA85FC0EFB178843EA084307FB0CF11B
:100C2000994209D9EB1807F1FF3080F01B819942F6
:100C300040F21881023F2B445B1AA4B2B3FBFEF0D2
:100C40000EFB103344EA034400FB0CFCA44509D915
:100C50002C1900F1FF3380F00781A44540F2048194
:100C600002382C4440EA0740A4EB0C0400271EB1D4
:100C7000D4400023C6E900433946BDE8F0878B42E3
:100C800009D9002E00F0EB800027C6E900013846A4
:100C90003946BDE8F087B3FA83F7002F47D18B427E
:100CA00002D3824200F2FA80841A61EB030301202E
:100CB0009846002EE0D0C6E90048DDE702B9FFDE25
:100CC000B2FA82F2002A40F08F80491B4FEA154E9B
:100CD0001FFA85F80127B1FBFEFC230C0EFB1C114B
:100CE00043EA014308FB0CF1994207D9EB180CF1D8
:100CF000FF3002D2994200F2CD808446591AA3B245
:100D0000B1FBFEF00EFB101443EA044408FB00F8AC
:100D1000A04507D92C1900F1FF3302D2A04500F2FB
:100D2000B6801846A4EB080440EA0C409FE7C7F1E0
:100D3000200CBB4022FA0CFE4EEA030E01FA07F427
:100D400020FA0CF521FA0CF34FEA1E482543B3FBB9
:100D5000F8F92C0C08FB19331FFA8EFA44EA034306
:100D600009FB0AF49C4202FA07F200FA07F10BD9D8
:100D70001EEB030309F1FF3080F087809C4240F2B4
:100D80008480A9F1020973441B1BADB2B3FBF8F0D8
:100D900008FB103345EA034400FB0AFAA24508D9D0
:100DA0001EEB040400F1FF336BD2A24569D902386F
:100DB000744440EA0940A0FB0289A4EB0A044C45B4
:100DC000C2464B4654D351D0002E69D0B1EB0A0530
:100DD00064EB030404FA0CFCFD40FC404CEA0505FE
:100DE000C6E90054002747E7C2F1200320FA03F7C1
:100DF000954001FA02F021FA03F34FEA154E384309
:100E0000010CB3FBFEF71FFA85F80EFB173341EA1E
:100E1000034107FB08F38B4204FA02F407D969186F
:100E200007F1FF3C2FD28B422DD9023F2944CB1A28
:100E300081B2B3FBFEF00EFB103341EA034100FB2D
:100E400008F38B4207D9691800F1FF3C17D28B4297
:100E500015D902382944C91A40EA07473BE7374603
:100E6000304609E70746E7E61846FBE64145ABD2C0
:100E7000B8EB020A69EB0E0201381346A4E760469C
:100E8000E9E7184695E76746D1E781467CE70238EF
:100E90002C4447E7ACF1020C2B442FE7384608E717
:100EA0003746E9E6704700BF08B50B4B1A6842F4B5
:100EB00000721A601A6842F480621A601A6842F47A
:100EC00080721A60032000F09DFE002009F0F6F900
:100ED00009F052F8002008BD003C0240034A1168A6
:100EE000034B1B780B441360704700BFC8400020C1
:100EF00000000020014B1868704700BFC840002068
:100F00004A4B5A6822F440325A605A6841680A4390
:100F10005A600268536823F4807353600268536810
:100F2000016943EA012353600268536823F0407368
:100F300053600268536881680B435360026893688A
:100F400023F40063936002689368C1680B43936065
:100F5000826A374B9A424BD00268936823F07063E1
:100F6000936002689368816A0B4393600268936898
:100F700023F04053936002689368C16A0B43936007
:100F80000268936823F00203936002689368017E0D
:100F900043EA4103936090F82030002B33D102687C
:100FA000536823F4006353600268D36A23F4700328
:100FB000D3620168CB6AC269013A43EA0253CB6249
:100FC0000268936823F4007393600268936890F852
:100FD000301043EA412393600268936823F48063EE
:100FE000936002689368416943EA81239360704784
:100FF0000268936823F0706393600268936823F03B
:1010000040539360BCE70268536843F40063536045
:101010000268536823F46043536001684B68426A76
:10102000013A43EA42334B60BEE700BF0023014070
:101030000100000F38B310B50446036C43B1236CB4
:1010400013F0100F0BD00120002384F83C3010BDAA
:1010500008F0B4FF0023636484F83C30EFE7236CAE
:1010600023F4885323F0020343F002032364204651
:10107000FFF746FF00206064236C23F0030343F076
:1010800001032364E0E701207047000030B583B01E
:101090000023019390F83C30012B00F09B8001234A
:1010A00080F83C300468A36813F0010F13D1A368E3
:1010B00043F00103A3604D4B1C684D4BA3FB04346C
:1010C000A40C04EB4404019402E0019C013C019453
:1010D000019C002CF9D103689C6814F0010F7BD0AF
:1010E000046C24F4E06424F0010444F48074046487
:1010F0005B6813F4806F05D0036C23F4405343F412
:1011000080530364036C13F4805F38D0436C23F086
:101110000603436413460446002280F83C20826B99
:101120003448D063A26B34481064A26B3348D06457
:1011300022686FF0220010602568686840F08060C7
:1011400068602568A86840F48070A86020680A4636
:1011500000F14C01A06B00F09DFE294B5B6813F081
:101160001F0F27D12368274A934219D002F58072B6
:10117000934207D0244A93420BD000202DE0002355
:101180004364C7E702F50072526812F01F0F07D0E0
:10119000F0E702F58072526802F01F020F2A1ED893
:1011A0009A6812F0405F1CD19A6842F080429A60BF
:1011B000002012E02368134A934201D000200CE083
:1011C0009A6812F0405F0ED19A6842F080429A60AD
:1011D000002002E0022000E0002003B030BD00202B
:1011E000FBE70020F9E70020F7E700BF48000020F8
:1011F00083DE1B4333120008111200081D12000881
:101200000023014000200140002201407047704748
:1012100008B5806BFFF7FBFF08BD704708B5806B12
:1012200040230364436C43F004034364FFF7F5FF7A
:1012300008BD08B5836B1A6C12F0500F26D11A6CDA
:1012400042F400721A641A68916811F0405F19D173
:10125000197EB9B9D16A11F4700F03D0916811F4F5
:10126000806F0FD1516821F0200151601A6C22F477
:1012700080721A641A6C12F4805F03D11A6C42F007
:1012800001021A641846FFF7C1FF08BD1A6C12F07C
:10129000100F03D19B6BDB6C9847F6E71846FFF7FE
:1012A000BCFFF2E730B482B00023019390F83C30E9
:1012B000012B00F0BD80012380F83C300B68092B26
:1012C0003ED90568EA689BB203EB43031E3B072443
:1012D00004FA03F322EA0303EB600568EA688C680A
:1012E0000B8803EB43031E3B04FA03F31343EB6049
:1012F0004B68062B3AD805686A6B03EB8303053B02
:101300001F2404FA03F322EA03036B6305686A6B84
:101310004B6803EB8303053B0C8804FA03F3134388
:101320006B630268434B9A4250D00268414B9A4229
:1013300059D0002380F83C30184602B030BC7047CA
:1013400005682A699BB203EB4303072404FA03F3FD
:1013500022EA03032B6105682A698C680B8803EB7A
:10136000430304FA03F313432B61C1E70C2B16D894
:1013700005682A6B03EB8303233B1F2404FA03F362
:1013800022EA03032B6305682A6B4B6803EB830394
:10139000233B0C8804FA03F313432B63C1E705686E
:1013A000EA6A03EB8303413B1F2404FA03F322EAB6
:1013B0000303EB620568EA6A4B6803EB8303413B76
:1013C0000C8804FA03F31343EB62AAE70B68122BB1
:1013D000ABD1194B5A6822F400025A605A6842F4A1
:1013E00080025A60A1E70B68144A934201D0112B86
:1013F0009FD1114B5A6822F480025A605A6842F415
:1014000000025A600A680D4B9A4292D10C4B1B683D
:101410000C4AA2FB03239B0C03EB83035A000192AB
:1014200002E0019B013B0193019B002BF9D180E776
:10143000022082E70020014000230140120000103A
:101440004800002083DE1B43002800F0A18038B54F
:10145000044690F82030D3B12268136823F00203C9
:101460001360FFF747FD054623685A6812F0020F24
:1014700010D0FFF73FFD401B0A28F5D9636A43F4FB
:1014800000336362052384F82030012038BD08F062
:101490002DFEE1E71A6842F001021A60FFF72AFD0B
:1014A000054623685A6812F0010F0DD1FFF722FD9F
:1014B000401B0A28F5D9636A43F4003363620523AD
:1014C00084F820300120E1E7227E012A3DD01A680D
:1014D00022F080021A60637E012B3BD022681368E1
:1014E00023F040031360A37E012B39D022681368D8
:1014F00023F020031360E37E012B37D022681368AA
:1015000043F010031360237F012B35D0226813684A
:1015100023F008031360637F012B33D02268136824
:1015200023F004031360A368E268134322691343A2
:10153000626913436268013A21681343CB6100205A
:101540006062012384F82030A0E71A6842F080022C
:101550001A60C0E72268136843F040031360C2E7D3
:101560002268136843F020031360C4E722681368FD
:1015700023F010031360C6E72268136843F00803E2
:101580001360C8E72268136843F004031360CAE7D6
:101590000120704790F82030013BDBB2012B05D9C8
:1015A000436A43F4802343620120704770B4434B85
:1015B000D3F8002242F00102C3F80022D3F800223F
:1015C00022F47C52C3F80022D3F80022486A42EA8F
:1015D0000022C3F800224A6902F01F02012000FA2B
:1015E00002F2D3F81C42D0430440C3F81C42CB693A
:1015F000B3B9324BD3F80C420440C3F80C42CE6866
:101600008D884C6945EA0645483443F834508E6865
:101610000C884D6944EA0644483503EBC5035C6019
:10162000CB69012B1DD08B69002B32D1234CD4F810
:1016300004320340C4F804320B698BBB1F4BD3F850
:1016400014422040C3F814020B6A012B2FD01B4A0E
:10165000D2F8003223F00103C2F80032002070BC3F
:101660007047164BD3F80C421443C3F80C420E6873
:101670008D884C6945EA0645483443F834508E68F5
:101680008C894D6944EA0644483503EBC5035C6028
:10169000C9E70A4CD4F804321343C4F80432CBE748
:1016A0000648D0F814321343C0F81432CCE703498B
:1016B000D1F81C321A43C1F81C22C8E7006400406C
:1016C00038B590F82030DBB2012B05D0436A43F4E3
:1016D00000234362012038BD0446022380F82030F5
:1016E0000268136823F001031360FFF703FC05464B
:1016F00023685B6813F0010F0DD0FFF7FBFB401B65
:101700000A28F5D9636A43F400336362052384F839
:1017100020300120DFE700206062DCE770B490F841
:1017200020400568AD68013CE4B2012C06D9436A4B
:1017300043F480234362012070BC704715F0E05FE2
:101740005BD0C5F30165022D3ED80124AC401C607E
:101750008B68002B3ED10E68CB68046843EA46567E
:1017600005F118031B01E65003680C6905F1180622
:1017700003EB06135C600B7D012B36D0D179937996
:101780001B0443EA0163517943EA01231479016898
:1017900023432C012144C1F88C31D17893781B0468
:1017A00043EA0163517843EA0123117802680B434D
:1017B0002244C2F88831026818352D01535943F08C
:1017C000010353510020B7E7436A43F40003436227
:1017D0000120B1E74C6843EAC403CC6806682343A0
:1017E00005F1180424013351BEE7036803EB061327
:1017F000596841F480715960C0E7436A43F40013AB
:101800004362012098E790F82030013BDBB2012BC6
:1018100001D90020704703689A6812F0806F0BD1DD
:1018200000209A6812F0006F00D001309B6813F01E
:10183000805FEFD0013070470120F2E730B490F8BC
:101840002040013CE4B2012C06D9436A43F48023D2
:101850004362012030BC704700296FD10468E468FE
:1018600014F0030F64D0056801F11B0424012C5906
:1018700004F004049460002C6BD1056801F11B0492
:1018800024012C59640D1460056801F11B04240126
:101890002D5905F00205D560056825446D6805F0F1
:1018A0000F051561056825446D68C5F30725956129
:1018B00005682C446468240C546104680A011444CB
:1018C000D4F8B8411C7004681444D4F8B841C4F387
:1018D00007245C7004681444D4F8B841C4F3074486
:1018E0009C7004681444D4F8B841240EDC70046879
:1018F0001444D4F8BC411C7104681444D4F8BC41AD
:10190000C4F307245C7104681444D4F8BC41C4F3E4
:1019100007449C7104682244D2F8BC21120EDA718B
:10192000F9B90268D36843F02003D360002091E73F
:10193000436A43F40013436201208BE7046824697F
:1019400014F0030F8FD1436A43F400134362012064
:1019500080E7056801F11B0424012C59E408546058
:1019600092E70268136943F020031361002071E7D6
:1019700090F82030013BDBB2012B05D9436A43F4D8
:101980008023436201207047026853691943516103
:101990000020704770477047704770477047704726
:1019A0007047704770477047704770472DE9F84F90
:1019B000054603685C695F689E68D3F80C90D3F8AD
:1019C0001080D3F818A014F0010F5AD016F0010FB0
:1019D00017D001229A6016F0020F08D116F0040FFA
:1019E00030D116F0080F07D04FF4805B0BE0FFF703
:1019F000D1FF4FF0000B06E0FFF7CFFF4FF0000BD9
:101A000001E04FF0000B16F4807F0BD02B684FF4F1
:101A100080729A6016F4007F17D116F4806F18D088
:101A20004BF4005B16F4803F2DD02B684FF48032CE
:101A30009A6016F4003F16D116F4802F17D04BF49D
:101A4000004B20E04FF4006BDDE72846FFF7A3FFD3
:101A5000E8E716F4006F02D04BF4804BE2E728462B
:101A6000FFF79CFFDEE72846FFF796FF0BE016F432
:101A7000002F02D04BF4803B05E02846FFF78FFF94
:101A800001E04FF0000B14F0080F07D019F0100F11
:101A900004D04BF4007B2B681022DA6014F0040FA2
:101AA00002D019F0080F60D114F0020F04D02B6897
:101AB000DB6813F0030F5FD114F0400F07D018F06C
:101AC000100F04D04BF4806B2B6810221A6114F0B5
:101AD000200F02D018F0080F52D114F0100F04D0CC
:101AE0002B681B6913F0030F51D114F4003F02D08F
:101AF00017F0100F4FD114F4803F02D017F0080FE9
:101B000050D114F4004F67D017F0040F61D014F4D3
:101B1000807F04D01AF0010F01D04BF0010B14F4B8
:101B2000007F04D01AF0020F01D04BF0020B14F426
:101B3000806F04D01AF0040F01D04BF0040B14F4A2
:101B4000006F46D01AF0700A43D0BAF1300F48D077
:101B50002FD9BAF1500F47D0BAF1600F47D0BAF180
:101B6000400F31D14BF0400B2EE02B680822DA6099
:101B70002846FFF715FF97E7284606F0F7FF9BE793
:101B80002B6808221A612846FFF70CFFA5E72846B4
:101B9000FFF707FFA9E72B6810225A602846FFF7D6
:101BA00002FFA8E72B6808225A602846FFF7FCFED0
:101BB000A7E7BAF1100F05D0BAF1200F04D14BF00E
:101BC000100B01E04BF0080B2A68936923F07003B7
:101BD00093612B6804225A60BBF1000F0AD1BDE863
:101BE000F88F4BF0200BEFE74BF0800BECE74BF45A
:101BF000807BE9E76B6A43EA0B036B622846FFF7D9
:101C0000D4FEECE7074AD36823F4E0631B041B0C03
:101C1000000200F4E060184340F0BF6040F4003080
:101C2000D060704700ED00E030B4174BDB68C3F3C1
:101C30000223C3F10704042C28BF04241D1D062D14
:101C400018D9033B4FF0FF3505FA04F421EA0401EB
:101C5000994005FA03F322EA0303194300280BDB3A
:101C60000901C9B200F1604000F5614080F800133D
:101C700030BC70470023E5E700F00F000901C9B24E
:101C8000024B1954F4E700BF00ED00E014ED00E052
:101C9000002807DB00F01F02400901239340024A9D
:101CA00042F82030704700BF00E100E0BFF34F8FE3
:101CB0000549CA6802F4E062044B1343CB60BFF3EA
:101CC0004F8F00BFFDE700BF00ED00E00400FA0504
:101CD00030B405682C6824F480242C6004686360A8
:101CE0008368402B05D0036899600368DA6030BCD4
:101CF000704703689A600368D960F8E70268D3B256
:101D0000103B0B49A1FB03131B090A49C95CC165C0
:101D1000032B06D822F47F7222F003028265806DC5
:101D2000704722F47F7222F0030204328265F6E7E4
:101D3000ABAAAAAAF0BB0008836A826992B9012BF8
:101D40000AD01BB1022B01D000207047C36A13F0E8
:101D5000807F2CD100207047C36AB3F1C07F28D0A8
:101D600000207047B2F5005F05D0022B29D9032B64
:101D700015D000207047032B03D8DFE803F01C04C4
:101D80001C0A00207047C36A13F0807F15D1002021
:101D90007047C36AB3F1C07F11D000207047C36A97
:101DA00013F0807F01D00120704700207047012090
:101DB00070470120704701207047012070470120C3
:101DC000704701207047000070B50446FFF792F895
:101DD000002C5BD00546002384F83430022384F8BD
:101DE00035302268136823F00103136023681A68F2
:101DF00012F0010F0AD0FFF77DF8401B0528F5D936
:101E000020236365032084F8350070BD1A682048DC
:101E100010406168A2680A43E1680A4321690A43E5
:101E200061690A43A1690A43E1690A43216A0A43D5
:101E30000243616A04291ED01A602668756925F07C
:101E40000705636A1D43042B07D1A36A1D43E36A98
:101E50001BB12046FFF770FF90B975612046FFF770
:101E60004DFFE26D3F2393408360002060650123B6
:101E700084F83530C9E7E16A206B01430A43DBE7A8
:101E800040236365012084F83500BEE70120BCE7EC
:101E90003F8010F038B5856D90F83440012C2CD07F
:101EA000012480F8344090F83540E4B2012C04D08D
:101EB000002380F83430022038BD0446022084F824
:101EC0003500002060652046FFF702FFE26D3F23EA
:101ED0009340AB602268136843F016031360236CD1
:101EE00023B12268136843F0080313602268136863
:101EF00043F0010313600020DEE70220DCE790F8E6
:101F00003530DBB2022B03D08023436501207047BC
:101F1000052380F835300268136823F0010313604D
:101F200000207047F0B583B0044600230193724B44
:101F30001D68724BA3FB0535AD0A876D3E68C26D07
:101F400008239340334210D003681A6812F0040F3C
:101F50000BD01A6822F004021A60C26D0823934065
:101F6000BB60436D43F001034365E26D0123934081
:101F7000334209D02268526912F0800F04D0BB604E
:101F8000636D43F002036365E26D042393403342C3
:101F900009D02268126812F0020F04D0BB60636D92
:101FA00043F004036365E26D10239340334224D071
:101FB0002268126812F0080F1FD0BB6023681A68ED
:101FC00012F4802F0DD01B6813F4002F04D1236C62
:101FD0009BB12046984710E0A36C73B12046984708
:101FE0000BE01A6812F4807F03D11A6822F008020D
:101FF0001A60236C0BB120469847E26D2023934072
:10200000334255D02268126812F0100F50D0BB60D6
:1020100094F83530DBB2052B0ED023681A6812F421
:10202000802F33D01B6813F4002F2AD1636C002B50
:102030003ED0204698473BE02268136823F0160301
:1020400013602268536923F080035361236CA3B1AA
:102050002268136823F008031360E26D3F23934066
:10206000BB60002384F83430012384F83530236DBD
:10207000002B3FD0204698473CE0A36C002BE7D1D3
:10208000EBE7E36BA3B12046984711E01A6812F41E
:10209000807F09D11A6822F010021A60002384F8A8
:1020A0003430012384F83530E36B0BB12046984778
:1020B000636DFBB1636D13F0010F17D0052384F836
:1020C00035302268136823F001031360019B01334C
:1020D0000193AB4204D823681B6813F0010FF5D1BC
:1020E000002384F83430012384F83530E36C0BB1DD
:1020F0002046984703B0F0BD48000020B5814E1B34
:1021000090F835007047000010B40A490C6924F4B7
:1021100040740C610C6944F440740C610C6944F027
:1021200001040C610260BFF36F8F43605DF8044BE4
:10213000704700BF003C0240074B1A6922F440720E
:102140001A611A6942F400721A611A6942F00102B6
:102150001A610160704700BF003C0240074B1A69DA
:1021600022F440721A611A6942F480721A611A6983
:1021700042F001021A610180704700BF003C02403A
:10218000064B1A6922F440721A611A691A611A69B7
:1021900042F001021A610170704700BF003C02402A
:1021A000274BDB6813F0100F07D0264AD36943F0A2
:1021B0001003D361224B1022DA60214BDB6813F04D
:1021C000200F07D01F4AD36943F00803D3611C4B8B
:1021D0002022DA601A4BDB6813F0400F07D0194A4F
:1021E000D36943F00403D361154B4022DA60144BEA
:1021F000DB6813F0800F07D0124AD36943F0020363
:10220000D3610F4B8022DA600D4BDB6813F4807FC3
:1022100008D00C4AD36943F00103D361084B4FF453
:102220008072DA60064BDB6813F0020F07D0054AB4
:10223000D36943F02003D361014B0222DA60704777
:10224000003C0240CC400020094B1B69002B01DB05
:1022500000207047064B074A5A6002F188325A60E4
:102260001B69002B01DB002070470120704700BF75
:10227000003C024023016745034A136943F00043D1
:1022800013610020704700BF003C0240074B5B69B0
:1022900013F0010F07D0054B054A9A6002F1443252
:1022A0009A60002070470120704700BF003C024048
:1022B0003B2A1908034A536943F001035361002084
:1022C000704700BF003C024038B50446154B002261
:1022D000DA61FEF70FFE0546134BDB6813F4803F0F
:1022E0000AD0B4F1FF3FF7D0CCB1FEF703FE401B9C
:1022F000A042F1D903200DE00B4BDB6813F0010F76
:1023000002D0094B0122DA60074BDB6813F4F97F36
:1023100001D1002038BDFFF743FF0120FAE7032079
:10232000F8E700BFCC400020003C0240F8B51D4C4F
:10233000247E012C34D01F4616460D460446194B08
:1023400001221A764CF25030FFF7BEFF014698B9D1
:10235000BCB1012C1AD0022C1DD032463B46284677
:10236000FFF7D2FE4CF25030FFF7AEFF01460E4AA7
:10237000136923F0010313610A4B00221A76084601
:10238000F8BDF1B22846FFF7FBFEEBE7B1B22846F5
:10239000FFF7E4FEE6E731462846FFF7CDFEE1E72A
:1023A0000221ECE7CC400020003C0240114A1369B6
:1023B00023F44073136103290ED0012913D00D4A71
:1023C000136943F4004313610A4A136943EA002086
:1023D00040F4803010617047136943F4004343F0C8
:1023E00004031361F0E7034A136943F00403136124
:1023F000EAE700BF003C024010B449B1012924D0F3
:10240000022902D04FF4407403E04FF4007400E05E
:1024100000240B2800D904300D4B196921F44071B8
:1024200019611A6922431A611A6922F0F8021A61C5
:102430001A6942EAC00040F0020018611A6942F4C9
:1024400080321A615DF8044B70474FF48074E0E706
:10245000003C0240164B1B6813F4007F10D0144B55
:102460001A6822F400721A601A6842F400621A6054
:102470001A6822F400621A601A6842F400721A6044
:102480000B4B1B6813F4806F10D0094B1A6822F4B1
:1024900080621A601A6842F480521A601A6822F444
:1024A00080521A601A6842F480621A60704700BF56
:1024B000003C0240F8B5234B1B7E012B40D00E465A
:1024C0000446204B01221A764CF25030FFF7FCFEF6
:1024D000074680BB4FF0FF3333602368012B16D0D3
:1024E000A568E368A2681344AB4222D9217C284640
:1024F000FFF782FF4CF25030FFF7E6FE124A1369F5
:1025000023F0FA031361074690B90135E9E76168E2
:10251000207CFFF74BFF4CF25030FFF7D5FE07460B
:10252000094A136923F4004323F00403136100E014
:102530003560FFF78FFF034B00221A763846F8BD4F
:102540000227FBE7CC400020003C024000230F2B79
:1025500000F2E380F0B583B039E0092200E0002208
:10256000AA403A4302346D4D45F824206C4A146861
:10257000F24302EA04054F6817F4803F01D046EAAF
:102580000405674C2560646802EA04054F6817F487
:10259000003F01D046EA0405614C6560A46802EA88
:1025A00004054F6817F4801F01D046EA04055C4C0F
:1025B000A560E46822404D6815F4001F01D046EA8A
:1025C0000402574CE26001330F2B00F2A480012279
:1025D0009A400C6804EA0206B242F4D14C68651EC7
:1025E000012D03D9112C01D0122C12D185685F0066
:1025F0000324BC4025EA0405CC68BC402C4384601D
:10260000456825EA02054C68C4F300129A402A4343
:102610004260C4685F000322BA40D24314408D6810
:10262000BD402543C5604C68022C01D0122C13D14B
:10263000DD08083550F825E003F007044FEA840C64
:102640000F2404FA0CF42EEA040E0C6904FA0CF4BC
:1026500044EA0E0440F82540046822404C6804F027
:102660000304BC40224302604A6812F0805FAAD093
:10267000002201922B4A546C44F480445464526CFE
:1026800002F480420192019A9C08A51C234A52F848
:10269000257003F0030295000F22AA4027EA0207E3
:1026A000214A90423FF45BAF02F58062904222D013
:1026B00002F58062904220D002F5806290421ED0E6
:1026C00002F5806290421CD002F5806290421AD0DE
:1026D00002F58062904218D002F58062904216D0D6
:1026E00002F58062904214D002F5806290423FF47D
:1026F00034AF0A2234E7012232E7022230E7032214
:102700002EE704222CE705222AE7062228E70722E3
:1027100026E7082224E703B0F0BD704700380140E7
:10272000003C0140003802400000024003691942A9
:1027300001D1002070470120704712B9090481615E
:10274000704781617047436931EA030301D08161B9
:10275000704709048161704708B5054B5B69034206
:1027600000D108BD024B586106F00CF9F9E700BF33
:10277000003C0140036D9BB9C36C012B08D0836CF6
:10278000C3F3072302681361036D013303657047C8
:10279000836C0268DBB21361036D0233036570471B
:1027A000036D012B03D0036D022B08D07047836C9F
:1027B0000268DBB21361036D01330365704790F863
:1027C0003D30DBB2222B10D090F83D30DBB2212B14
:1027D000ECD1426A036812781A61436A013343629A
:1027E000438D013B9BB24385E0E70268136843F4E5
:1027F00080731360704790F83E30DBB2402B0AD0F4
:102800000369B3F5804F15D0036D002B34D0036DF1
:10281000012B3BD07047036D2BB9436C026803F06A
:10282000FE0313617047436C026843F00103DBB29F
:102830001361704790F83D30DBB2212B0FD0436C11
:10284000026843F00103DBB21361436B6BB1DB6BD6
:102850005BB10268536843F4006353607047436C94
:10286000026803F0FE031361EFE7836B002BD1D006
:10287000DB6B002BEDD1CDE7436CC3F3C8130268CB
:1028800003F0060343F0F00313617047436CC3F396
:10289000C813026803F0060343F0F1031361B9E7BC
:1028A000436C0268DBB21361436B3BB1DB6B4BB132
:1028B0000268536843F4006353607047826B002AD8
:1028C000F4D1FAE7836BDB6B002BF1D1F5E710B4A1
:1028D0008BB090F83E30DAB2C16A046B90F83D30AC
:1028E000DBB2222B0BD00023099303685A690992AB
:1028F0009B690993099B0BB05DF8044B7047036D0E
:102900000BB9402A17D0036D1BB90369B3F5404FCB
:1029100019D0438D9BB2002B25D1029303685A69CD
:1029200002929A690292029A1A6842F400721A603C
:1029300000230365DFE7009303685A6900929B69EF
:102940000093009BD7E70023019303685A69019223
:102950009A690192019A1A6842F480721A60036DB2
:1029600001330365C7E7438D9BB2012B25D0438D0F
:102970009BB2022B7BD00268136843F48063136020
:1029800003685A6812F4006F0ED011F5803F07D02B
:10299000012905D0082903D0102901D0202903D10D
:1029A0005A6842F480525A600023089303685A69B7
:1029B00008929B690893089BBAE711F5803F11D0F4
:1029C000082934D0202932D0122C2ED0042940D00E
:1029D00002293ED010293CD00268136823F480639A
:1029E00013603BE00268136823F48063136003689C
:1029F0005A6812F4006F0CD01A6822F480621A60D0
:102A00000023039303685A6903929B690393039B12
:102A10008EE7002204925A6904929A690492049AF9
:102A20001A6842F400721A6082E70129CED0026867
:102A3000136823F4806313600023069303685A69C4
:102A400006929A690692069A1A6842F400721A600F
:102A50006EE70268136843F48063136000230593F4
:102A600003685A6905929B690593059B60E70429F1
:102A70000ED002290CD010290AD00268136823F462
:102A8000806313600268136843F40063136004E01A
:102A90000268136843F48063136003685A6812F491
:102AA000006F0ED011F5803F07D0012905D008290D
:102AB00003D0102901D0202903D15A6842F4805252
:102AC0005A600023079303685A6907929B6907932A
:102AD000079B2DE7438D9BB253B1426A036812787E
:102AE0001A61436A01334362438D013B9BB24385C4
:102AF0007047438D9BB253B103681A69436A1A70D9
:102B0000436A01334362438D013B9BB24385704767
:102B100003685A6912F4806F11D06FF480625A61B1
:102B200000230363202280F83D2080F83E30026CB1
:102B300042F00402026480F83C300120704700201B
:102B40007047C36AB3F52A0F04D0C36AB3F12A4FA2
:102B500003D070470123C36270470823C362F8E7BC
:102B6000F8B506460C4617461D4622E0FEF7C2F9A8
:102B7000069BC01AA84200D8DDB900233363202287
:102B800086F83D2086F83E30326C42F020023264F6
:102B900086F83C3001201AE033685B6924EA0303BD
:102BA0009BB2B3FA83F35B099F420FD1B5F1FF3FAC
:102BB000DCD1C4F30743012BEED033689B6924EAD0
:102BC00003039BB2B3FA83F35B09EDE70020F8BD82
:102BD000F8B504460D4616461F463CE01A6842F416
:102BE00000721A6023686FF480625A6100232363C5
:102BF000202284F83D2084F83E30226C42F004020A
:102C0000226484F83C30012033E0FEF773F9C01BE6
:102C1000B04200D8FEB900232363202284F83D206F
:102C200084F83E30226C42F02002226484F83C306A
:102C300001201EE023685B6925EA03039BB2003391
:102C400018BF0123A3B123685A6912F4806FC5D15C
:102C5000B6F1FF3FD9D1C5F30743012BEAD0236872
:102C60009B6925EA03039BB2003318BF0123E9E700
:102C70000020F8BDF0B583B004460F4615461E4649
:102C8000C36A082B0DD0012B0BD013F5803F08D061
:102C9000036B122B0AD10268136843F4807313602C
:102CA00004E02268136843F48073136000962B4697
:102CB00000224FF001112046FFF752FF58B1236860
:102CC0001B6813F4807F2BD04FF40073236403231D
:102CD000184603B0F0BD2369B3F5804F0ED12368C9
:102CE00007F0FE071F6133462A460F492046FFF7CB
:102CF0006FFF03460028EBD00123E9E7FB112268B0
:102D000003F0060343F0F003136133462A460749F4
:102D10002046FFF75DFF28B92368FFB21F61E2E795
:102D20000323D5E70123D3E70200010008000100D7
:102D30002DE9F04184B004460D4616461F46C26A8E
:102D400001680B6843F480630B60082A0DD0012AE8
:102D50000BD012F5803F08D0036B112B0AD102680B
:102D6000136843F48073136004E02268136843F42B
:102D7000807313600097334600224FF00111204604
:102D8000FFF7EEFE60B123681B6813F4807F5BD011
:102D90004FF4007323640323184604B0BDE8F081A8
:102DA0002369B3F5804F0FD1236845F00105EDB2DB
:102DB0001D613B46324626492046FFF709FF034680
:102DC0000028E9D00123E7E74FEAE51808F00608F4
:102DD000236848F0F0021A613B4632461D492046FE
:102DE000FFF7F6FE08B10123D6E72368EDB21D61B7
:102DF0003B46324616492046FFF7EAFE08B101235A
:102E0000CAE70022039223685969039199690391E3
:102E10000399196841F480711960009733464FF0A7
:102E200001112046FFF79CFE48B123681B6813F48C
:102E3000807F0BD04FF4007323640323ACE7226838
:102E400048F0F1031361B4E70323A5E70323A3E7E5
:102E5000020001000800010070B504460D46164648
:102E600023685B6913F0800F1CD12046FFF750FEEA
:102E7000D0B9B5F1FF3FF3D0FEF73CF8801BA84274
:102E800001D8002DECD100232363202284F83D20BB
:102E900084F83E30226C42F02002226484F83C30F8
:102EA000012000E0002070BD0120FCE770B5044661
:102EB0000D46164623685B6913F0040F1CD12046AB
:102EC000FFF726FED0B9B5F1FF3FF3D0FEF712F8B9
:102ED000801BA84201D8002DECD1002323632022BF
:102EE00084F83D2084F83E30226C42F020022264B7
:102EF00084F83C30012000E0002070BD0120FCE798
:102F000070B505460C4616462B685A6912F0400FFC
:102F100029D15A6912F0100F15D1FDF7EBFF801B74
:102F2000A04201D8002CEFD100232B63202285F88A
:102F30003D2085F83E302A6C42F020022A6485F854
:102F40003C30012070BD6FF010025A6100232B63EA
:102F5000202285F83D2085F83E302A6C2A6485F8C9
:102F60003C300120EEE70020ECE70000002800F0F4
:102F7000C880F8B5044690F83D30002B75D0242366
:102F800084F83D302268136823F00103136022683F
:102F9000136843F4004313602268136823F400436A
:102FA000136001F07DFB6268584B9A4262D8584B1F
:102FB00098428CBF00230123002B40F0A480554B86
:102FC000A3FB00239B0C21684A6822F03F021A43AE
:102FD0004A6025682A6A22F03F0266684B498E42A1
:102FE0004ED8013313432B622568E96921F44F4120
:102FF00021F0FF016368454A93424BD801385B00DA
:10300000B0FBF3F30133C3F30B03042B38BF0423EA
:103010000B43EB6121680B6823F0C003E269206A6F
:10302000024313430B6021688B6823F4034323F0AE
:10303000FF032269E068024313438B602168CB6879
:1030400023F0FF036269A06902431343CB60226847
:10305000136843F00103136000202064202384F8E8
:103060003D30206384F83E00F8BD80F83C3007F026
:103070007DF884E7284B98428CBF002301239BE70F
:103080004FF4967101FB03F32449A1FB03139B0941
:103090000133A7E7A268BAB9461E03EB4307B6FBA4
:1030A000F7F60136C6F30B06B6FA86F6760936BB96
:1030B000C2B9013803EB4303B0FBF3F30133C3F3AD
:1030C0000B0242F40043A3E7461E03EB830707EB22
:1030D0008707B6FBF7F60136C6F30B06B6FA86F697
:1030E0007609E4E7013803EB830303EB8303B0FBCA
:1030F000F3F20132C2F30B0242F4404388E70123AA
:1031000086E7012070470120AEE700BFA0860100DE
:103110007F841E0083DE1B43FF083D00D34D6210F9
:103120002DE9F04184B004460E4690461F46FDF757
:10313000E1FE94F83D30DBB2202B04D0022630466D
:1031400004B0BDE8F08105460090192301224F49E3
:103150002046FFF705FD002840F0918094F83C30B0
:10316000012B00F08E80012384F83C3023681A681C
:1031700012F0010F03D11A6842F001021A602268AE
:10318000136823F400631360212384F83D30102377
:1031900084F83E3000232364C4F824806785638D5F
:1031A00023853B4BE3622B460A9A31462046FFF7C4
:1031B00061FD0646002866D10023039323685A69FF
:1031C00003929B690393039B12E0236C042B01D0B1
:1031D0000126B4E72268136843F4007313600126E4
:1031E000ADE72A460A992046FFF760FE00282CD159
:1031F000238D002B35D02A460A992046FFF72CFE56
:103200000028E2D1626A236812781A61616A4B1C55
:103210006362638D013B9BB26385238D013B9BB24F
:1032200023852268506910F0040FDAD0002BD8D023
:103230004B781361636A01336362638D013B9BB218
:103240006385238D013B2385CBE7236C042B01D0C1
:10325000012674E72268136843F4007313600126A3
:103260006DE72268136843F400731360202384F829
:103270003D30002384F83E3084F83C305FE702267E
:103280005DE702265BE7012659E700BF0200100058
:103290000000FFFF2DE9F04186B004460E4690463F
:1032A0001F46FDF727FE94F83D30DBB2202B04D0FB
:1032B0000226304606B0BDE8F0810546009019238D
:1032C00001229E492046FFF74BFC002840F0348144
:1032D00094F83C30012B00F03781012384F83C3016
:1032E00023681A6812F0010F03D11A6842F0010234
:1032F0001A602268136823F400631360222384F8A1
:103300003D30102384F83E3000232364C4F8248029
:103310006785638D23858A4BE3622B460C9A314681
:103320002046FFF705FD0646002840F00F81238D5B
:103330005BB9029323685A6902929A690292029ACF
:103340001A6842F400721A6077E0012B0FD0022B4A
:103350001FD02268136843F4806313600023059331
:1033600023685A6905929B690593059B65E022686D
:10337000136823F4806313600023039323685A695E
:1033800003929A690392039A1A6842F400721A60CF
:1033900053E02268136823F4806313602268136883
:1033A00043F4006313600023049323685A69049272
:1033B0009B690493049B40E02A460C992046FFF742
:1033C0009FFD002840F0C48023681A69636A1A7060
:1033D000636A01336362238D013B2385638D013B67
:1033E0009BB2638529E000950C9B0022554920463D
:1033F000FFF7B6FB002840F0AD802268136843F465
:103400000073136023681A69636A1A70626A531C36
:103410006362238D013B2385638D013B9BB26385F2
:1034200023681B695370636A01336362238D013B18
:103430002385638D013B9BB26385238D002B72D066
:10344000032B49D8012BB7D0022BCCD000950C9B75
:1034500000223C492046FFF783FB00287CD12268EC
:10346000136823F48063136023681A69636A1A700F
:10347000636A01336362238D013B2385638D013BC6
:103480009BB2638500950C9B00222E492046FFF7D6
:1034900067FB002862D12268136843F4007313604D
:1034A00023681A69636A1A70626A531C6362238D07
:1034B000013B2385638D013B9BB2638523681B69B8
:1034C0005370636A01336362238D013B2385638DEF
:1034D000013B9BB26385B0E72A460C992046FFF773
:1034E0000FFD00283CD123681A69636A1A70626A6A
:1034F000531C6362238D013B2385638D013B9BB28B
:1035000063852368596911F0040F96D01B695370C5
:10351000636A01336362238D013B2385638D013B25
:103520009BB2638589E7202384F83D30002384F82B
:103530003E3084F83C30BCE60226BAE602001000B9
:103540000000FFFF040001000226B2E60126B0E6FB
:103550000126AEE60126ACE60126AAE60126A8E68B
:103560000126A6E670477047704708B590F83D30D1
:10357000DAB2438D9BB27BB1416A03680978196165
:10358000436A01334362438D013B9BB24385438DC4
:103590009BB20BB9292A00D008BD0268536823F4F6
:1035A0008063536021230363282380F83D30FFF7B5
:1035B000DBFFF1E7704708B590F83D30DAB2438D94
:1035C0009BB27BB103681969436A1970436A01337E
:1035D0004362438D013B9BB24385438D9BB20BB944
:1035E0002A2A00D008BD0268536823F48063536020
:1035F00022230363282380F83D30FFF7DBFFF1E748
:10360000704708B590F83D3003F02803282B07D009
:1036100003686FF002025A61002380F83C3008BD55
:103620000268536823F48063536011F0040F0BD0D9
:10363000002311F0800F09D18289002180F83C100D
:103640001946FFF7DDFFEAE70123F2E7028BF4E713
:103650007047000008B590F83D30DBB2C26A082A16
:1036600001D0202A01D1282B06D0212B1ED003689F
:103670006FF480625A6108BD1A4BC36202685368D6
:1036800023F4E063536003686FF480625A61026858
:10369000136823F48063136000230363202280F8FF
:1036A0003D2080F83E30FFF7D3FFE4E70D4BC362C7
:1036B00021230363202380F83D30002380F83E302F
:1036C0000268536823F4E063536003686FF4806218
:1036D0005A610268136823F480631360FFF744FFA4
:1036E000C9E700BF0000FFFF704710B590F83D30FC
:1036F000DBB290F83E20D2B2C46A018D09B9212B09
:1037000004D0212B3BD0402A37D010BD082C04D048
:10371000202C02D014F5803F19D10268536823F49D
:10372000E06353600268136843F40073136000237E
:103730000363202380F83D3090F83E30DBB2402B0D
:1037400015D0002380F83E30FFF70CFFDDE702685C
:10375000536823F4E063536011230363002380F86C
:103760003E30202380F83D30FFF7FCFECDE70023FC
:1037700080F83E30FFF7B8FFC7E7222BC5D1438D55
:103780009BB283B190F83E30DBB2402B11D0426A3D
:10379000036812781A61436A01334362438D013B27
:1037A0009BB24385B1E70268536823F4806353609A
:1037B000ABE7FEF7DFFFA8E708B5C26A90F83D3037
:1037C000DBB2212B05D090F83E30DBB2402B46D047
:1037D00008BD438D9BB203BB082A04D0202A02D027
:1037E00012F5803F25D10268536823F4E0635360EB
:1037F0000268136843F400731360002303632023FB
:1038000080F83D3090F83E30DBB2402B21D00023D1
:1038100080F83E30FFF7A6FEDAE7426A03681278C6
:103820001A61436A01334362438D013B9BB2438576
:10383000CEE70268536823F4E06353601123036307
:10384000002380F83E30202380F83D30FFF78AFEC9
:10385000BEE7002380F83E30FFF746FFB8E7FEF7EB
:1038600089FFB5E7704708B590F83D30DBB2222BF1
:1038700000D008BD438D9BB2032B14D903681A698D
:10388000436A1A70436A01334362438D013B9BB222
:103890004385438D9BB2032BEBD10268536823F41D
:1038A00080635360E5E7C26A022AE2D0012BE0D8C8
:1038B0000268136823F4806313600268536823F47A
:1038C000E063536003681A69436A1A70436A0133FC
:1038D0004362438D013B9BB24385202380F83D30FA
:1038E00090F83E30DBB2402B07D0002380F83E300A
:1038F00012230363FFF737FEBBE7002380F83E3057
:103900000363FFF7AFFFB4E708B5C26A438D9BB20C
:10391000042B13D0438D9BB2032B20D0438D9BB23D
:10392000022B36D003681A69436A1A70436A01335E
:103930004362438D013B9BB243850FE002685368AD
:1039400023F48063536003681A69436A1A70436AF8
:1039500001334362438D013B9BB2438508BD01683F
:103960004B6823F480634B60042A06D0022A04D0FB
:103970000268136823F48063136003681A69436A5A
:103980001A70436A01334362438D013B9BB2438506
:10399000E4E7012A0BD0102A09D0042A36D0022AE3
:1039A00034D00268136843F40073136004E00268C3
:1039B000136823F48063136003681A69436A1A70FA
:1039C000426A531C4362438D013B9BB243850368AB
:1039D0001B695370436A01334362438D013B9BB2C1
:1039E00043850268536823F440735360202380F8B2
:1039F0003D3090F83E30DBB2402B0DD0002380F8F4
:103A00003E3012230363FFF7AEFDA7E70268136899
:103A100043F480631360CFE7002380F83E300363F4
:103A2000FFF720FF9AE77047704708B5806B90F862
:103A30003D30DBB2426B0AB10021D163826B0AB127
:103A40000021D16301680A6822F480620A600022C2
:103A50004285426B0AB100211165826B0AB10021D7
:103A6000116501680A6822F001020A6090F83D20A1
:103A7000D2B2602A0CD003F02803282B12D02023C6
:103A800080F83D30002380F83E30FFF7CCFF08BDC2
:103A9000202380F83D30002380F83E300364FFF798
:103AA000C3FFF4E70268136843F001031360026880
:103AB000136843F48063136000230363282380F8B2
:103AC0003D30E2E710B5044690F83D30DBB290F8A7
:103AD0003E20D2B2102A33D003F02802282A37D051
:103AE0002268526812F4006F04D1602B02D02023A8
:103AF00084F83D300023236384F83E3023685A68FD
:103B000012F4006F48D05A6822F400625A60626B67
:103B100092F83530DBB2012B20D0444B1365606B3B
:103B2000FEF7EDF9002849D02268136823F001035D
:103B30001360202384F83D30606B036D98473DE0AF
:103B4000222BC9D101680A6822F400620A60C3E727
:103B500000232363282384F83D30CFE7A36B334A47
:103B60001A65A06BFEF7CBF940B323685A6912F0CF
:103B7000400F05D01A69636A1A70636A0133636281
:103B80002268136823F001031360202384F83D307A
:103B9000A06B036D984711E094F83D20D2B2602AE3
:103BA0001FD05A6912F0400F05D01A69636A1A7063
:103BB000636A013363622046FFF735FF236C13F01D
:103BC0000F0F04D02268536823F4E063536094F825
:103BD0003D30DBB2226C12F0040F01D0282B18D03C
:103BE00010BD202284F83D20002222645A6912F080
:103BF000400F05D01A69636A1A70636A0133636201
:103C00002268136823F0010313602046FFF70CFFBE
:103C1000D4E7074BE36200232363202284F83D208E
:103C200084F83E302046FFF713FDD9E72B3A000811
:103C30000000FFFF30B583B0044690F83D50EDB270
:103C40000268536823F4E063536000230193036820
:103C50005A6901921A6842F001021A60019B0268D7
:103C6000136823F48063136003685A6812F4006FCA
:103C700038D0222D21D02A2D1FD0426B12685268D5
:103C800092B24285428D92B21AB1026C42F00402A5
:103C900002645A6822F400625A60606BFEF730FAE0
:103CA00001281FD0636B434A1A65606BFEF727F942
:103CB000C0B1606B036D984714E0A26B1268526844
:103CC00092B26285628D92B21AB1226C42F0040205
:103CD00022645A6822F400625A60A06BFEF710FA60
:103CE000012840D1638D9BB223B323685A6912F037
:103CF000040F09D01A69636A1A70636A0133636238
:103D0000638D013B9BB2638523685A6912F0400FB3
:103D100009D01A69636A1A70636A01336362638D3A
:103D2000013B9BB26385638D9BB21BB1236C43F057
:103D300004032364236C13BB2A2D25D094F83D3053
:103D4000DBB2282B29D0236B222B01D0222D19D1B5
:103D500000232363202284F83D2084F83E3020464F
:103D6000FFF728FC0EE0A36B124A1A65A06BFEF762
:103D7000C6F80028B6D0A06B036D9847B2E720467E
:103D8000FFF7A0FE03B030BD00232363282384F88F
:103D90003D302046FFF70EFCD0E7074BE3620023DF
:103DA0002363202284F83D2084F83E302046FFF72C
:103DB0004FFCE7E72B3A00080000FFFF70B5044610
:103DC00002685568C66A90F83E30DBB290F83D1044
:103DD000102B14D0C8B2402B11D0236C002B71D003
:103DE0005369002113F0020F6FD015F4007F6CD0DF
:103DF000236C03B191692046FFF703FC70BD906905
:103E0000536913F0010105D1B6F52A0FF6D0B6F1CA
:103E10002A4FF3D011B115F4007F25D113F0080F0C
:103E200002D015F4007F26D113F0020F02D015F452
:103E3000007F24D110F0040F29D0526812F4006FD3
:103E4000DCD113F0800F05D015F4806F02D013F091
:103E5000040F18D013F0040FD0D015F4007FCDD08C
:103E60002046FFF7A9FCC9E72046FEF76AFE204678
:103E7000FEF7C1FCC2E72046FEF712FDBEE7204672
:103E8000FEF725FDBAE72046FFF72FFCB6E752689C
:103E900012F4006FB2D113F0400F05D015F4806F0B
:103EA00002D013F0040F09D013F0040FA6D015F4BC
:103EB000007FA3D02046FFF727FD9FE72046FFF7AE
:103EC000D2FC9BE7916953698CE713F0100F02D085
:103ED00015F4007F17D1212819D0292817D013F005
:103EE000400F05D015F4806F02D013F0040F27D0D7
:103EF00013F0040F82D015F4007F3FF47FAF20460B
:103F0000FEF7F7FD7AE72046FFF794FE76E713F019
:103F1000800F05D015F4806F02D013F0040F0BD082
:103F200013F0040F3FF46AAF15F4007F3FF466AF5F
:103F30002046FEF7CFFD61E72046FFF716FB5DE761
:103F40002046FFF738FB59E7F8B5044603685D697A
:103F50005F6890F83E20D2B215F4807F07D017F446
:103F6000807F3CD06FF480715961012600E000260B
:103F700015F4007F08D017F4807F05D046F00206C4
:103F800023686FF40071596115F4806F19D017F42C
:103F9000807F16D0638D99B294F83D30DBB2206BF0
:103FA000202A1ED023686FF48061596146F0040610
:103FB000102A01D0402A04D12268136843F4007308
:103FC000136015F4006F08D017F4807F05D046F019
:103FD000080623686FF400625A6186B9F8BD0026AE
:103FE000C6E70029DED1212B05D0292B03D0282BB1
:103FF000D8D12128D6D12046FFF72CFBE1E7236C4E
:104000001E4326642046FFF75DFDE7E790F83D304C
:10401000DBB2202B1AD1242380F83D3002681368CC
:1040200023F0010313600268536A23F01003536204
:104030000268536A194351620268136843F001032E
:104040001360202380F83D30002070470220704725
:1040500090F83D30DBB2202B19D1242380F83D307D
:104060000268136823F0010313600268536A9BB26D
:1040700023F00F03194389B251620268136843F0B9
:1040800001031360202380F83D3000207047022098
:1040900070470000002800F0E48170B582B004464B
:1040A000036813F0010F3BD0A74B9B6803F00C0390
:1040B000042B2CD0A44B9B6803F00C03082B21D0BD
:1040C0006368B3F5803F4FD0B3F5A02F52D09E4B1D
:1040D0001A6822F480321A601A6822F480221A6068
:1040E0006368002B50D0FCF705FF0546964B1B6814
:1040F00013F4003F14D1FCF7FDFE401B6428F5D9F2
:104100000320B3E1904B5B6813F4800FD8D08E4B43
:104110001B6813F4003F03D06368002B00F0A381F9
:10412000236813F0020F55D0874B9B6813F00C0FD8
:104130003ED0854B9B6803F00C03082B33D0E3681B
:10414000002B68D0814B01221A60FCF7D3FE054694
:104150007D4B1B6813F0020F54D1FCF7CBFE401BC4
:104160000228F5D9032081E1774A136843F48033AC
:104170001360B5E7744B1A6842F480221A601A681B
:1041800042F480321A60ABE7FCF7B4FE05466E4B92
:104190001B6813F4003FC3D0FCF7ACFE401B64283F
:1041A000F5D9032062E1684B5B6813F4800FC6D138
:1041B000654B1B6813F0020F04D0E368012B01D09C
:1041C000012053E1604A136823F0F803216943EAB0
:1041D000C1031360236813F0080F40D0636963B311
:1041E0005B4B01221A60FCF785FE0546564B5B6F60
:1041F00013F0020F33D1FCF77DFE401B0228F5D9E6
:10420000032033E1504A136823F0F803216943EA9D
:10421000C1031360DEE74D4B00221A60FCF76AFE13
:104220000546494B1B6813F0020FD3D0FCF762FE22
:10423000401B0228F5D9032018E1454B00221A60E3
:10424000FCF758FE0546404B5B6F13F0020F06D09B
:10425000FCF750FE401B0228F5D9032006E1236835
:1042600013F0040F79D0384B1B6C13F0805F33D1FF
:1042700000230193344B1A6C42F080521A641B6C79
:1042800003F080530193019B0125324B1B6813F40B
:10429000807F23D0A368012B34D0052B38D02A4B44
:1042A0001A6F22F001021A671A6F22F004021A67CD
:1042B000A368002B36D0FCF71DFE0646224B1B6F71
:1042C00013F0020F48D1FCF715FE801B41F2883332
:1042D0009842F3D90320C9E00025D6E71D4A1368A8
:1042E00043F480731360FCF705FE0646194B1B6808
:1042F00013F4807FCED1FCF7FDFD801B0228F5D999
:104300000320B3E0104A136F43F001031367CFE7B4
:104310000D4B1A6F42F004021A671A6F42F0010245
:104320001A67C5E7FCF7E6FD0646074B1B6F13F05F
:10433000020F11D0FCF7DEFD801B41F2883398425A
:10434000F3D9032092E000BF00380240000047424A
:10435000800E474200700040EDB9A369002B00F0C9
:104360008480454A926802F00C02082A51D0022B40
:1043700017D0424B00221A60FCF7BCFD04463E4BAE
:104380001B6813F0007F42D0FCF7B4FD001B02282D
:10439000F5D903206AE0384A136C23F08053136484
:1043A000DBE7364B00221A60FCF7A4FD0546324BD2
:1043B0001B6813F0007F06D0FCF79CFD401B022811
:1043C000F5D9032052E0E369226A1343626A43EAA3
:1043D0008213A26A5208013A43EA0243E26A43EABC
:1043E0000263254A5360254B01221A60FCF782FDC7
:1043F0000446214B1B6813F0007F06D1FCF77AFDC1
:10440000001B0228F5D9032030E000202EE0002018
:104410002CE0012B2CD0184B9B6803F48001E2693F
:10442000914201D0012021E003F03F02216A8A423B
:1044300001D001201AE0616A47F6C0721A408A4230
:1044400001D0012012E003F44032A16A8A4201D077
:1044500001200BE003F07063E26A93420AD001206E
:1044600004E001207047012000E0002002B070BD90
:104470000120FBE70020F9E70038024060004742D6
:10448000014B01221A6070474C004742264B9B6843
:1044900003F00C03042B44D0082B01D023487047B1
:1044A0002DE9F04B204B5A6802F03F025B6813F491
:1044B000800F13D01C4B5968C1F3881100231C488E
:1044C000A1FB0001FCF770FB174B5B68C3F30143D2
:1044D00001335B00B0FBF3F0BDE8F08B124B5B687F
:1044E000C3F388131E4600275C010025E41A65EB20
:1044F0000705A90141EA9461A001001B61EB0501D8
:10450000CB0043EA5073C400A01943EB07018B02B0
:1045100043EA90538402204619460023FCF744FBEB
:10452000D2E70348704700BF003802400024F4007F
:1045300040787D01002800F09E8070B50446504B05
:104540001B6803F00F038B4209D2CBB24C4A1370A5
:10455000136803F00F038B4201D0012070BD236864
:1045600013F0020F17D013F0040F04D0454A9368DC
:1045700043F4E0539360236813F0080F04D0414ADA
:10458000936843F4604393603E4A936823F0F003DA
:10459000A068034393600D46236813F0010F32D0E7
:1045A0006368012B21D09A1E012A25D9354A126849
:1045B00012F0020F61D033498A6822F003021343DC
:1045C0008B60FCF797FC06462E4B9B6803F00C03B0
:1045D0006268B3EB820F16D0FCF78CFC801B41F2B3
:1045E00088339842F0D90320B8E7264A126812F4BB
:1045F000003FE0D10120B1E7224A126812F0007FAB
:10460000D9D10120AAE71E4B1B6803F00F03AB4270
:1046100009D9EAB21A4B1A701B6803F00F03AB42B8
:1046200001D001209AE7236813F0040F06D0154A41
:10463000936823F4E053E1680B439360236813F01D
:10464000080F07D00F4A936823F46043216943EAB7
:10465000C1039360FFF71AFF0A4B9B68C3F3031370
:10466000094AD35CD840094B1860094B186805F01B
:1046700025FE002072E70120704701206EE700BF91
:10468000003C0240003802408CBC0008480000207A
:1046900004000020014B1868704700BF480000204C
:1046A00008B5FFF7F7FF044B9B68C3F38223034A67
:1046B000D35CD84008BD00BF003802409CBC000855
:1046C0000F2303600B4B9A6802F0030242609A6862
:1046D00002F0F00282609A6802F4E052C2609B68C5
:1046E000DB0803F4E0530361034B1B6803F00F0383
:1046F0000B60704700380240003C024030B4036A4F
:1047000023F001030362056A4268846924F073049C
:104710000B681C4325F002058B682B43104DA84203
:1047200003D005F58065A84205D123F00803CD68C4
:104730002B4323F004030A4DA84203D005F58065FE
:10474000A84205D122F440724D6915438A692A4373
:10475000426084614A684263036230BC704700BFB4
:104760000000014030B4036A23F480730362036ADB
:104770004268C46924F073040D682C4323F4007369
:104780008D6843EA0523124DA84203D005F58065E4
:10479000A84206D123F40063CD6843EA052323F43D
:1047A00080630B4DA84203D005F58065A84207D170
:1047B00022F440524D6942EA05128D6942EA05121F
:1047C0004260C4614A68C263036230BC704700BF84
:1047D0000000014030B4036A23F480530362036A8B
:1047E0004468C26922F4E6420D6842EA052223F4D5
:1047F00000538D6843EA0533094DA84203D005F5FF
:104800008065A84204D124F480444D6944EA8514AB
:104810004460C2614A680264036230BC704700BFF2
:10482000000001400268D36843F00103D3600268CE
:10483000936803F00703062B03D0136843F00103CA
:10484000136000207047704770477047704710B57D
:10485000044603681A6912F0020F11D0DA6812F0E8
:10486000020F0DD06FF002021A6101230377036873
:104870009B6913F0030F70D0FFF7E6FF0023237747
:1048800023681A6912F0040F12D0DA6812F0040FCC
:104890000ED06FF004021A610223237723689B690C
:1048A00013F4407F5FD02046FFF7CEFF002323772D
:1048B00023681A6912F0080F12D0DA6812F0080F94
:1048C0000ED06FF008021A61042323772368DB6996
:1048D00013F0030F4ED02046FFF7B6FF00232377D7
:1048E00023681A6912F0100F12D0DA6812F0100F54
:1048F0000ED06FF010021A61082323772368DB695A
:1049000013F4407F3DD02046FFF79EFF002323771E
:1049100023681A6912F0010F03D0DA6812F0010F50
:1049200036D123681A6912F0800F03D0DA6812F0CA
:10493000800F34D123681A6912F0400F03D0DA686F
:1049400012F0400F32D123681A6912F0200F03D001
:10495000DA6812F0200F30D110BDFFF774FF204647
:10496000FFF773FF8AE72046FFF76DFF2046FFF74A
:104970006CFF9BE72046FFF766FF2046FFF765FFC9
:10498000ACE72046FFF75FFF2046FFF75EFFBDE77D
:104990006FF001021A61204603F0BAFFC1E76FF021
:1049A00080021A61204600F07EF9C3E76FF04002F2
:1049B0001A612046FFF74AFFC5E76FF020021A612F
:1049C000204600F06FF9C7E70368304A904212D0E2
:1049D000B0F1804F0FD0A2F57C4290420BD002F58F
:1049E0008062904207D002F58062904203D002F5C7
:1049F0007842904203D123F070034A681343234A5C
:104A000090422AD0B0F1804F27D0A2F57C4290424C
:104A100023D002F5806290421FD002F5806290425E
:104A20001BD002F57842904217D002F570529042A6
:104A300013D002F5806290420FD002F5806290425E
:104A40000BD0A2F59832904207D002F580629042D6
:104A500003D002F58062904203D123F44073CA6808
:104A6000134323F080034A69134303608B68C362D6
:104A70000B688362054B984203D003F5806398422C
:104A800001D10B69036301234361704700000140BA
:104A9000A8B110B5044690F83D305BB1022384F80C
:104AA0003D30211D2068FFF78FFF012384F83D3042
:104AB000002010BD80F83C3005F0DEFBEEE7012061
:104AC0007047A8B110B5044690F83D305BB10223A1
:104AD00084F83D30211D2068FFF776FF012384F81C
:104AE0003D30002010BD80F83C3005F08FFBEEE734
:104AF0000120704730B4036A23F010030362036A95
:104B00004468826922F4E6420D6842EA052223F0F5
:104B100020038D6843EA0513114DA84203D005F523
:104B20008065A84206D123F08003CD6843EA0513CF
:104B300023F040030A4DA84203D005F58065A84242
:104B400007D124F440644D6944EA85048D6944EA40
:104B50008504446082614A688263036230BC7047A6
:104B60000000014038B590F83C30012B66D00D466E
:104B70000446012380F83C30022380F83D300C2AA3
:104B80001AD8DFE802F00719191920191919341970
:104B9000191947000068FFF7B1FD2268936943F0D7
:104BA000080393612268936923F0040393612268E8
:104BB000936929690B439361012384F83D300020F8
:104BC00084F83C0038BD0068FFF794FF22689369C1
:104BD00043F4006393612268936923F480639361D3
:104BE00022689369296943EA01239361E4E7006835
:104BF000FFF7B8FD2268D36943F00803D361226848
:104C0000D36923F00403D3612268D36929690B4374
:104C1000D361D1E70068FFF7DDFD2268D36943F473
:104C20000063D3612268D36923F48063D36122686F
:104C3000D369296943EA0123D361BDE70220C1E7B3
:104C400010B401F01F01012303FA01F4036A23EAFF
:104C500004030362036A8A40134303625DF8044B52
:104C60007047000010B5044601220068FFF7E8FF16
:104C700023680B4A934203D002F58062934203D12A
:104C80005A6C42F400425A642268936803F00703A6
:104C9000062B03D0136843F001031360002010BDFE
:104CA0000000014070477047842801D003307047EE
:104CB00000207047EFF30580003018BF01207047D7
:104CC00008B500F079FF002008BD2DE9F04387B05A
:104CD00004460F464569A5B1866996B1D0F80480AF
:104CE000D0F80090B0F90800FFF7DEFF22690296C5
:104CF000019500903B464946404600F05FFE059016
:104D000013E065682668D4F81080B4F90800FFF74E
:104D1000CBFF05AB019300903B461FFA88F231466A
:104D2000284600F084FE012803D1059807B0BDE8AD
:104D3000F0830020FAE70000044B4FF080521A6025
:104D4000BFF34F8FBFF36F8F0020704704ED00E07B
:104D500008B5034600B90123184601F067F80020A2
:104D600008BD08B5416819B1012000F012FB08BD6B
:104D7000012000F003FBFAE730B583B00023019374
:104D800050B30C460546B1F1FF3F02D019B91C469D
:104D900001E04FF0FF34FFF78DFF90B101AA002131
:104DA000284600F02DFC012818D1019BC3B10D4B02
:104DB0004FF080521A60BFF34F8FBFF36F8F002008
:104DC00006E02146284600F04DFB012802D10020D4
:104DD00003B030BDFF20FBE78020F9E7FF20F7E7B5
:104DE0000020F5E704ED00E010B582B00446002392
:104DF0000193FFF75FFF88B101A9204600F0D8FAC0
:104E0000012816D1019BB3B10D4B4FF080521A60AF
:104E1000BFF34F8FBFF36F8F002008E000231A46C7
:104E20001946204600F0E0F9012806D1002002B022
:104E300010BDFF20FBE70020F9E7FF20F7E700BFE8
:104E400004ED00E008B501F05FF8002008BD0000A7
:104E500010B50446FFF72EFF68B1204600F05CFE57
:104E600001280BD1064B4FF080521A60BFF34F8FD1
:104E7000BFF36F8F02E0204600F00CFE002010BD53
:104E800004ED00E000F1080343604FF0FF32826060
:104E9000C360036100230360704700230361704710
:104EA00043684B609A688A609A68516099600861AB
:104EB000036801330360704730B40D68B5F1FF3FFC
:104EC00002D000F1080202E0026904E01A465368C9
:104ED0001C68AC42FAD953684B6099608A60516093
:104EE000086103680133036030BC7047036942689E
:104EF000816891608268416851605A68824206D038
:104F0000002202611A68013A1A60186870478268C4
:104F10005A60F5E7436A23B1036B1868C0F10500D6
:104F200070470020704710B5044601F0B3FAA26B39
:104F3000E36B9A4204D0002401F0CEFA204610BD63
:104F40000124F9E710B5044601F0A4FAA36B23B1DC
:104F5000002401F0C1FA204610BD0124F9E770B524
:104F600004461646856B026C5AB903681BB10020D3
:104F70000135A56370BD406801F058F900236360F6
:104F8000F6E76EB9806806F011FE226CA368134440
:104F9000A3606268934219D32368A3600020E7E707
:104FA000C06806F003FE226C5242E3681344E360DB
:104FB00021688B4202D263681A44E260022E01D05B
:104FC0000020D5E725B1013D0020D1E70020CFE743
:104FD0000020CDE7026C72B110B5C3681344C36002
:104FE0004468A34201D30368C3600C46C1682046ED
:104FF00006F0DCFD10BD704738B5054601F04AFAF1
:1050000095F8454064B203E001F096F8013C64B2C3
:10501000002C08DD6B6A33B105F1240001F000F8C3
:105020000028F3D0F0E7FF2385F8453001F054FA6B
:1050300001F030FA95F8444064B203E001F07CF8E6
:10504000013C64B2002C08DD2B6933B105F110007E
:1050500000F0E6FF0028F3D0F0E7FF2385F84430A6
:1050600001F03AFA38BD000038B540B94FF05003AE
:1050700083F31188BFF36F8FBFF34F8FFEE70446B2
:105080000D4601F007FA2168E26B236C03FB021066
:1050900060600020A063A160013A02FB0313E3609B
:1050A000FF2384F8443084F84530A5B923691BB93F
:1050B00001F012FA012038BD04F1100000F0B0FF39
:1050C0000028F5D0084B4FF080521A60BFF34F8F85
:1050D000BFF36F8FECE704F11000FFF7D3FE04F18C
:1050E0002400FFF7CFFEE3E704ED00E010B5029BDC
:1050F0000C4639B11A60D8631C6401211846FFF7C9
:10510000B3FF10BD1B60F6E740B94FF0500383F3C7
:105110001188BFF36F8FBFF34F8FFEE710B584B0D8
:10512000044653B192B189B94FF0500383F311880B
:10513000BFF36F8FBFF34F8FFEE74FF0500383F342
:105140001188BFF36F8FBFF34F8FFEE74AB941B1AC
:105150004FF0500383F31188BFF36F8FBFF34F8F6E
:10516000FEE7482003900398482808D04FF05003EA
:1051700083F31188BFF36F8FBFF34F8FFEE7204695
:105180001C46012384F8463000949DF81830FFF740
:10519000ADFF204604B010BD40B94FF0500383F37B
:1051A0001188BFF36F8FBFF34F8FFEE7F0B583B069
:1051B000064611B101FB00F000E0002017460C4646
:1051C000483001F009FB054650B1002380F8463015
:1051D00000903B4600F1480221463046FFF786FF2B
:1051E000284603B0F0BD0000F0B585B0019260B173
:1051F000044699B9026C8AB14FF0500383F31188C9
:10520000BFF36F8FBFF34F8FFEE74FF0500383F371
:105210001188BFF36F8FBFF34F8FFEE7022B0BD1C7
:10522000E26B012A08D04FF0500383F31188BFF3DB
:105230006F8FBFF34F8FFEE71E460F4600F084FFCF
:1052400050B9019B53B14FF0500383F31188BFF362
:105250006F8FBFF34F8FFEE700253AE0002538E05F
:10526000324639462046FFF77AFE636A4BB9A8B149
:105270003B4B4FF080521A60BFF34F8FBFF36F8FDD
:105280000CE004F1240000F0CBFE38B1344B4FF0B9
:1052900080521A60BFF34F8FBFF36F8F01F01CF97C
:1052A000012005B0F0BD01F017F90020F9E702A8D0
:1052B00000F0F8FE012519E0002384F8443021E0D5
:1052C000002384F8453023E02046FFF795FE00F0E8
:1052D00035FD01F0DFF8A26BE36B9A42C0D3022EDA
:1052E000BED0019B002BDED0002DE0D001F0F4F801
:1052F00000F094FC01F0CEF894F844305BB2B3F1C6
:10530000FF3FD9D094F845305BB2B3F1FF3FD7D01F
:1053100001F0E2F801A902A800F0CEFEC8B92046CB
:10532000FFF701FE0028CFD0019904F1100000F032
:105330005DFE2046FFF760FE00F000FD0028C8D1AA
:10534000074B4FF080521A60BFF34F8FBFF36F8F40
:10535000BFE72046FFF750FE00F0F0FC0020A0E77A
:1053600004ED00E048B108B5002141600160C16072
:105370000B460A46FFF738FF08BD704710B50246D6
:1053800000210120FFF708FF0446FFF7EBFF20464E
:1053900010BD10B582B000900B46002211460120CE
:1053A000FFF7B2FE0446FFF7DDFF204602B010BD56
:1053B00060B170B50446036C8BB14FF0500383F3BA
:1053C0001188BFF36F8FBFF34F8FFEE74FF050038D
:1053D00083F31188BFF36F8FBFF34F8FFEE703682E
:1053E0002BB30E4601F07CF9EFF311854FF050031B
:1053F00083F31188BFF36F8FBFF34F8FA26BE36B03
:10540000934226D994F845305BB20132A263B3F1DE
:10541000FF3F18D1636AF3B104F1240000F000FEED
:10542000D8B1E6B10120306085F3118870BD4368C2
:10543000002BD6D04FF0500383F31188BFF36F8F4A
:10544000BFF34F8FFEE701335BB284F84530012094
:10545000EAE70020E8E70120E6E70120E4E7012091
:10546000E2E7000070B584B0019140B94FF05003FD
:1054700083F31188BFF36F8FBFF34F8FFEE70446AE
:10548000036C43B14FF0500383F31188BFF36F8F68
:10549000BFF34F8FFEE700F057FE50B9019B5BB1A1
:1054A0004FF0500383F31188BFF36F8FBFF34F8F1B
:1054B000FEE700252E4651E000252E464EE0013B3A
:1054C000A363236813B900F06BFF6060236963B1C5
:1054D00004F1100000F0A4FD38B1484B4FF08052A9
:1054E0001A60BFF34F8FBFF36F8F00F0F5FF0125F8
:1054F000284604B070BD45B14FF0500383F31188C6
:10550000BFF36F8FBFF34F8FFEE700F0E5FFEFE7CC
:1055100002A800F0C7FD01262AE0002384F84430E9
:1055200032E0002384F8453034E000F0B3FF6068D7
:1055300000F01AFE054600F0CFFF3BE02046FFF7E3
:105540005BFD00F0FBFB09E02046FFF755FD00F096
:10555000F5FB2046FFF7F6FC002840D100F09AFF4B
:10556000A36B002BABD1019B002BC4D0002ECFD05E
:1055700000F0B2FF00F052FB00F08CFF94F84430D2
:105580005BB2B3F1FF3FC8D094F845305BB2B3F1E2
:10559000FF3FC6D000F0A0FF01A902A800F08CFDDB
:1055A0000028D1D12046FFF7CDFC0028C6D02368C3
:1055B000002BBAD0019904F1240000F017FD204619
:1055C000FFF71AFD00F0BAFB0028C7D10B4B4FF0D4
:1055D00080521A60BFF34F8FBFF36F8FBEE7002D6D
:1055E00086D000F057FF2046FFF794FC0146606824
:1055F00000F074FE00F070FF002579E704ED00E094
:105600002DE9F84360B1044699B9036C8BB14FF0B2
:10561000500383F31188BFF36F8FBFF34F8FFEE703
:105620004FF0500383F31188BFF36F8FBFF34F8F99
:10563000FEE71746894601F053F8EFF311864FF065
:10564000500383F31188BFF36F8FBFF34F8FD4F8EC
:105650003880B8F1000F1DD094F844506DB249461F
:105660002046FFF7B7FC08F1FF33A363B5F1FF3F16
:1056700005D06B1C5BB284F8443001200BE0236939
:105680006BB104F1100000F0CBFC50B15FB1012010
:10569000386000E0002086F31188BDE8F88301201F
:1056A000F9E70120F7E70120F5E7000050B1416973
:1056B0000C4A91420FD1836A143293420DD073B1D8
:1056C000002070474FF0500383F31188BFF36F8FB2
:1056D000BFF34F8FFEE70020704700207047012086
:1056E000704700BFD0000020074B9B6A1B6833B196
:1056F000054B9A6AD268D2685268DA627047024BE8
:105700004FF0FF32DA627047D00000202DE9F047F9
:1057100080469946089D099F0A9C266B02F18042AB
:10572000013A06EB820626F0070600230F2B07D866
:10573000C85CE21882F83400CA5C0AB10133F5E7AC
:10574000002384F84330042D00D90425E562656404
:105750004FF0000AC4F848A0201DFFF79EFB04F19B
:105760001800FFF79AFB2461C5F10505A561646285
:10577000C4F84CA084F850A04A464146304600F098
:105780005DFE206007B13C60BDE8F08770B5002485
:1057900007E004EB8402930010481844FFF772FB03
:1057A0000134042CF5D90E4C04F194063046FFF771
:1057B00069FB04F1A8052846FFF764FB04F1140017
:1057C000FFF760FB04F1BC00FFF75CFB2046FFF72E
:1057D00059FBA662C4F8D05070BD00BF0001002084
:1057E000D000002038B5054600F054FE264BD3F813
:1057F000D4200132C3F8D420D3F8D83073B1224B6F
:10580000D3F8DC308BB9204BD3F8D830DA6AEB6AA6
:105810009A420AD81C4BC3F8D85006E01A4BC3F87A
:10582000D850D3F8D430012B2AD0174CD4F8E0301C
:105830000133C4F8E030EB6A01229A40D4F8E41056
:105840000A43C4F8E42004F1300003EB83039A0018
:10585000291D1044FFF724FB00F03EFED4F8DC3095
:105860006BB1D4F8D830DA6AEB6A9A4207D2074BA8
:105870004FF080521A60BFF34F8FBFF36F8F38BD68
:10588000FFF784FFD1E700BFD000002004ED00E067
:1058900010B5044690F8513033B9006B01F016F89A
:1058A000204601F013F810BD012B0AD0022BFAD0CC
:1058B0004FF0500383F31188BFF36F8FBFF34F8F07
:1058C000FEE701F003F8EEE738B517E000F0E2FD7F
:1058D0000D4CD4F8C830DD68281DFFF707FBD4F85D
:1058E000D430013BC4F8D430D4F8E830013BC4F8DC
:1058F000E83000F0F1FD2846FFF7CAFF024BD3F86D
:10590000E830002BE2D138BDD000002008B5FFF709
:10591000DBFF064B1B6B012BF9D9054B4FF0805277
:105920001A60BFF34F8FBFF36F8FF0E7D0000020F6
:1059300004ED00E070B504460E461F4BD3F8EC5062
:10594000D3F8D8000430FFF7D1FA60B91A4BD3F876
:10595000D820D16A012202FA01F1D3F8E42022EA28
:105960000102C3F8E420B4F1FF3F12D02C44124BE3
:10597000D3F8D8305C60A54214D80F4DA86AD5F88A
:10598000D8100431FFF798FAEB6AA34212D9EC62FF
:1059900010E0002EEAD00848D0F8D8100431FFF704
:1059A0007FFA07E0044BD3F8D000D3F8D8100431C5
:1059B000FFF782FA70BD00BFD000002070B586B03E
:1059C0000B9D0C9C45B94FF0500383F31188BFF336
:1059D0006F8FBFF34F8FFEE744B94FF0500383F34F
:1059E0001188BFF36F8FBFF34F8FFEE754260496E5
:1059F000049E542E08D04FF0500383F31188BFF358
:105A00006F8FBFF34F8FFEE72563022584F8515057
:105A100000250395029405AD01950A9D0095FFF7B9
:105A200075FE2046FFF7DEFE059806B070BD2DE935
:105A3000F04385B00746884615469946900000F029
:105A4000CBFE08B30646542000F0C6FE0446B8B1AB
:105A50000663E4B1002384F85130039302940D9B54
:105A600001930C9B00934B462A4641463846FFF76C
:105A70004DFE2046FFF7B6FE012005B0BDE8F083DD
:105A8000304600F023FFE4E74FF0FF30F5E74FF03A
:105A9000FF30F2E778B170B504461D4BD3F8D8302B
:105AA000834207D000F0F6FC2046FFF7FFFD58B90F
:105AB00000F012FD70BD4FF0500383F31188BFF367
:105AC0006F8FBFF34F8FFEE7261D3046FFF70EFAAC
:105AD000E26A012393400E4DD5F8E4100B43C5F85C
:105AE000E43005F130033146142000FB0230FFF7AB
:105AF000D7F9E26AD5F8D830DB6A9A42D8D3054B99
:105B00004FF080521A60BFF34F8FBFF36F8FCFE714
:105B1000D000002004ED00E0F8B540B94FF050038C
:105B200083F31188BFF36F8FBFF34F8FFEE70446F7
:105B300000F0D6FDEFF311874FF0500383F3118887
:105B4000BFF36F8FBFF34F8F2046FFF7AFFD60B3FA
:105B5000174BD3F8F0300BBBE26A154BD3F8D830B3
:105B6000DB6A9A4218D20025261D3046FFF7BEF99F
:105B7000E06A012282400E4BD3F8E4100A43C3F8D6
:105B8000E42030333146142202FB0030FFF788F95D
:105B900087F311882846F8BD0125E5E704F11801CF
:105BA0000448FFF77DF90025F2E70025F0E700BF84
:105BB000D0000020E400002010B588B00024059437
:105BC000069407AA06A905A801F02AFE059B0293E0
:105BD000069B019300942346079A0D490D48FFF751
:105BE000EDFE08B908B010BD4FF0500383F31188E3
:105BF000BFF36F8FBFF34F8F074B4FF0FF32DA6267
:105C00000122C3F8DC20C3F8EC4000F0E5FCE9E732
:105C1000A4BC00080D590008D0000020034AD2F8A7
:105C2000F0300133C2F8F030704700BFD0000020E0
:105C30002DE9F041404BD3F8F030002B6CD13E4BB6
:105C4000D3F8EC500135C3F8EC50CDB99B6A1B6812
:105C500043B14FF0500383F31188BFF36F8FBFF34D
:105C60004F8FFEE7344B9A6AD3F8D0109962C3F88D
:105C7000D020D3F8F4200132C3F8F420FFF734FD2C
:105C80002D4BDB6AAB423DD900242B4AD2F8D830E9
:105C9000DB6A03EB830399000A44136B012B42D99F
:105CA000012440E00124244B9B6A1B6863B3224B10
:105CB0009B6ADB68DE6873689D422AD306F104089C
:105CC0004046FFF713F9B36A1BB106F11800FFF75E
:105CD0000DF9F36A01229A40174FD7F8E4100A43EE
:105CE000C7F8E42007F1300003EB83039A00414634
:105CF0001044FFF7D5F8F26AD7F8D830DB6A9A4239
:105D0000D0D2D0E70024CEE70B4B4FF0FF32DA625F
:105D1000BBE7094AD362B8E7074AD2F8F830013343
:105D2000C2F8F8300024044BD3F8FC3003B101244E
:105D30002046BDE8F08100BFD0000020394BD3F8E9
:105D4000F03043B94FF0500383F31188BFF36F8FE6
:105D5000BFF34F8FFEE770B500F09CFB314BD3F8DB
:105D6000F020013AC3F8F020D3F8F030002B54D1E2
:105D70002C4BD3F8D43023B9002400F0ADFB2046DF
:105D800070BD0024274B5B692BB3264D2B6ADC6862
:105D900004F11800FFF7AAF8261D3046FFF7A6F811
:105DA000E36A01229A40D5F8E4100A43C5F8E420DA
:105DB00005F1300003EB83039A0031461044FFF7EE
:105DC0006FF8E26AD5F8D830DB6A9A42DAD301225A
:105DD000C5F8FC20D6E70CB1FFF786FC114BD3F8D1
:105DE000F84064B1FFF724FF18B10E4B0122C3F84D
:105DF000FC20013CF6D10B4B0022C3F8F820094BE4
:105E0000D3F8FC305BB1084B4FF080521A60BFF3FF
:105E10004F8FBFF36F8F0124AFE70024ADE700245D
:105E2000ABE700BFD000002004ED00E010B5B0B13A
:105E300004460F4BD3F8F03043B14FF0500383F3D7
:105E40001188BFF36F8FBFF34F8FFEE7FFF7E6FEBA
:105E500000212046FFF76EFDFFF770FF38B9054BB4
:105E60004FF080521A60BFF34F8FBFF36F8F10BD9A
:105E7000D000002004ED00E0224BD3F8F03023B135
:105E8000204B0122C3F8FC2070471E4A0023C2F8B1
:105E9000FC30D2F8E430B3FA83F3DBB2C3F11F0372
:105EA00003EB830081000A44126B42B94FF05003A8
:105EB00083F31188BFF36F8FBFF34F8FFEE710B4EA
:105EC000104A9900CC18A0001044446B64684463E5
:105ED0003032194488000830024494420BD00949FA
:105EE00003EB83039A000A44536BDB68C1F8D83094
:105EF0005DF8044B704761680248142202FB0302FC
:105F00005163ECE7D000002038B5044600F0C2FA37
:105F10008CB3251D2846FEF7E9FF88B9E26A02EB3B
:105F2000820399002F4B0B441B6B4BB9012303FADF
:105F300002F22C49D1F8E43023EA0203C1F8E4303C
:105F4000A36A1BB104F11800FEF7D0FF29462548CB
:105F5000FEF7A6FF94F85030DBB2012B0FD000F013
:105F6000BBFA204BD3F8DC306BB91E4BD3F8D830DA
:105F7000A3420FD038BD1B4BD3F8D840C9E700234C
:105F800084F85030EBE700F085FAFFF7ADFB00F046
:105F9000A3FAEAE7134BD3F8DC30ABB1114BD3F8DB
:105FA000F03043B14FF0500383F31188BFF36F8F8C
:105FB000BFF34F8FFEE70C4B4FF080521A60BFF3D8
:105FC0004F8FBFF36F8FD5E7064B1A68D3F8D430E5
:105FD0009A4204D1034B0022C3F8D820CAE7FFF746
:105FE0004BFFC7E7D000002004ED00E040B94FF0C0
:105FF000500383F31188BFF36F8FBFF34F8FFEE71A
:1060000010B50C46054BD3F8D8101831FEF754FFE5
:1060100001212046FFF78EFC10BD00BFD0000020FC
:1060200038B5C368DC6844B94FF0500383F3118876
:10603000BFF36F8FBFF34F8FFEE704F118052846BB
:10604000FEF754FF154BD3F8F03003BB251D28464F
:10605000FEF74CFFE36A01219940104AD2F8E400B0
:106060000143C2F8E410303203EB83039800294661
:106070001044FEF715FFE26A084BD3F8D830DB6A0C
:106080009A4209D90120054BC3F8FC0038BD2946C6
:106090000348FEF705FFEEE70020F7E7D0000020F9
:1060A000E4000020034BD3F8F4200260D3F8EC3076
:1060B00043607047D0000020F8B550B1054689B95B
:1060C0004FF0500383F31188BFF36F8FBFF34F8FEF
:1060D000FEE74FF0500383F31188BFF36F8FBFF3D8
:1060E0004F8FFEE70C4600F0D5F9124BD3F8EC10B9
:1060F00068680A1A2368B3F1FF3F17D02F680D4E66
:10610000D6F8F460B74201D0884211D9934203D83F
:1061100000232360012405E09B1A23602846FFF733
:10612000C1FF002400F0D8F92046F8BD0024F9E7AB
:106130000124F7E7D0000020024B0122C3F8FC2025
:10614000704700BFD0000020064BD3F8DC303BB1D5
:10615000044BD3F8F0300BB1002070470220704799
:1061600001207047D0000020002859D038B50446DF
:10617000C26A2C49D1F8D810C96A8A4245D28169CD
:10618000002906DB2749D1F8D810C96AC1F10501F9
:106190008161606902EB82029100234A0A449042C5
:1061A00006D0204AD2F8D820D26AE262012038BD57
:1061B000251D2846FEF79AFE80B9E26A02EB8203AB
:1061C0009900184B0B441B6B43B9012393401549AD
:1061D000D1F8E42022EA0302C1F8E4201148D0F803
:1061E000D830DB6AE362012404FA03F2D0F8E41049
:1061F0000A43C0F8E420303003EB83039A002946B9
:106200001044FEF74DFE2046D1E7426C054BD3F813
:10621000D830DB6A9A4201D20120C8E70020C6E7E5
:1062200000207047D00000200001002000284DD041
:1062300038B50446284AD2F8D820824208D04FF018
:10624000500383F31188BFF36F8FBFF34F8FFEE7C7
:10625000826C42B94FF0500383F31188BFF36F8F04
:10626000BFF34F8FFEE7013A8264C06A616C8842D7
:106270002ED07ABB251D2846FEF738FE78B9E26A93
:106280001549142303FB02131B6B43B9012303FAC3
:1062900002F2D1F8E43023EA0203C1F8E430626C80
:1062A000E262C2F10503A361012404FA02F10A4B80
:1062B000D3F8E4000143C3F8E41030332946142036
:1062C00000FB0230FEF7ECFD204638BD0020704791
:1062D0000020FAE70020F8E7D0000020002859D07D
:1062E00038B50346806C40B94FF0500383F31188F2
:1062F000BFF36F8FBFF34F8FFEE75A6C8A4200D215
:106300000A46D96A914201D0012800D038BD2248FE
:10631000D0F8D800984208D14FF0500383F3118889
:10632000BFF36F8FBFF34F8FFEE7DA6298690028E3
:1063300002DBC2F105029A615A691848142404FB71
:1063400001018A42E2D11C461D1D2846FEF7CEFD02
:1063500078B9E26A1049142303FB02131B6B43B99B
:10636000012303FA02F2D1F8E43023EA0203C1F870
:10637000E430E06A01228240074BD3F8E4100A437C
:10638000C3F8E42030332946142202FB0030FEF724
:1063900087FDBBE7704700BFD00000200001002050
:1063A000064BD3F8D8302BB1044BD3F8D820936CDC
:1063B00001339364014BD3F8D8007047D00000201C
:1063C00082B0002301930D4B1B68B3F1FF3F08D04F
:1063D0004FF0500383F31188BFF36F8FBFF34F8FDC
:1063E000FEE74FF0500383F31188BFF36F8FBFF3C5
:1063F0004F8F019B002BFCD002B07047080000209B
:1064000008480068006880F308884FF0000080F3B7
:10641000148862B661B6BFF34F8FBFF36F8F00DF92
:1064200000BF000008ED00E0DFF80C00016841F457
:10643000700101607047000088ED00E04FF080734C
:1064400040F8043C21F0010140F8081C054B40F8DD
:106450000C3C40F8202C6FF0020340F8243C4438F8
:10646000704700BFC163000800000000000000008A
:10647000074B19680868B0E8F04F80F30988BFF34C
:106480006F8F4FF0000080F311887047AFF30080EA
:10649000A80100204FF0500383F31188BFF36F8FE2
:1064A000BFF34F8F0A4A136801331360012B00D0EA
:1064B0007047084B1B6813F0FF0FF9D04FF05003E3
:1064C00083F31188BFF36F8FBFF34F8FFEE700BFD9
:1064D0000800002004ED00E0094B1B6843B94FF0B1
:1064E000500383F31188BFF36F8FBFF34F8FFEE725
:1064F000013B034A13600BB983F31188704700BF57
:106500000800002000000000000000000000000063
:10651000EFF30980BFF36F8F154B1A681EF0100F51
:1065200008BF20ED108A20E9F04F10602DE9090026
:106530004FF0500080F31188BFF34F8FBFF36F8F80
:10654000FFF79AFC4FF0000080F3118809BC19682E
:106550000868B0E8F04F1EF0100F08BFB0EC108ACA
:1065600080F30988BFF36F8F704700BFAFF30080DF
:10657000A801002008B54FF0500383F31188BFF342
:106580006F8FBFF34F8FFFF753FB18B1034B4FF0E3
:1065900080521A60002383F3118808BD04ED00E0E7
:1065A000084A0023136008490B60084B1B68084920
:1065B000A1FB03139B09013B06490B6007231360F2
:1065C000704700BF10E000E018E000E04800002045
:1065D000D34D621014E000E0394B1A68394B9A42EF
:1065E0000DD0374B1A68384B9A4211D14FF05003F7
:1065F00083F31188BFF36F8FBFF34F8FFEE74FF028
:10660000500383F31188BFF36F8FBFF34F8FFEE703
:1066100010B582B02D4B1A78D2B20192FF221A70B7
:106620001B78DBB28DF803309DF8033003F0500384
:10663000274A13700723536009E0254A5368013B3A
:1066400053609DF803305B00DBB28DF803309DF89A
:10665000033013F0800FF0D11D4B5B68032B08D083
:106660004FF0500383F31188BFF36F8FBFF34F8F49
:10667000FEE71B0203F4E063154A5360019BDBB2A3
:10668000124A1370134B1A6842F470021A601A68A7
:1066900042F070421A60FFF783FF00240E4B1C602B
:1066A000FFF7C2FE0D4A136843F040431360FFF743
:1066B000A7FEFFF7E1FBFFF783FE204602B010BD07
:1066C00000ED00E071C20F4170C20F4100E400E034
:1066D000D001002020ED00E00800002034EF00E0B1
:1066E000EFF305830F2B0FD9104A9B5CDBB2104AE6
:1066F00012789A4208D94FF0500383F31188BFF300
:106700006F8FBFF34F8FFEE70A4B1B6803F4E06304
:10671000074A5268934208D94FF0500383F3118817
:10672000BFF36F8FBFF34F8FFEE77047F0E300E0DA
:10673000D00100200CED00E0104A12F0070F1AD033
:10674000D11D21F00701C1F5705313440A460C49CD
:106750000A60002048601344083B23F007038B6065
:1067600058601860981A50601360C86008614FF054
:1067700000434B6170474FF47053E8E7F00100208D
:10678000D801002010B4134B1A6882421BD35968F9
:106790005C18844203D1406801445960184641683E
:1067A0004418A24213D10B4CA468A2420DD05268E7
:1067B000114441601A6812680260984200D0186063
:1067C0005DF8044B70471346DEE70460F5E70260AE
:1067D000F3E700BFD801002070B50446FFF71EFAAA
:1067E000394B9B68BBB1384B5B691C4262D1ACB181
:1067F000083414F0070F11D024F00704083404F013
:1068000007035BB14FF0500383F31188BFF36F8F21
:10681000BFF34F8FFEE7FFF78FFFE4E7002C4BD06D
:10682000294B1B69A34249D3274B1D6801E02B4626
:1068300015466A68A24202D22A68002AF7D1224A83
:106840009268AA423CD01E6808362A681A606B68B3
:106850001B1B102B10D9281910F0070F08D04FF070
:10686000500383F31188BFF36F8FBFF34F8FFEE7A1
:1068700043606C60FFF786FF6968134A13695B1A0F
:106880001361D268934201D20F4AD3600E4B5B6909
:106890000B436B6000232B60FFF750FA16F0070FD5
:1068A00010D04FF0500383F31188BFF36F8FBFF305
:1068B0004F8FFEE70026EFE70026EDE70026EBE727
:1068C0000026E9E7304670BDD801002080B338B516
:1068D0000446A0F1080550F8042C164949690A42FB
:1068E00008D14FF0500383F31188BFF36F8FBFF3CC
:1068F0004F8FFEE750F8080C40B14FF0500383F380
:106900001188BFF36F8FBFF34F8FFEE722EA0102BA
:1069100044F8042CFFF782F954F8041C054A136963
:106920000B4413612846FFF72DFFFFF707FA38BD28
:10693000704700BFD801002010B586B0002002903B
:106940000390049005900DE000EB80014A001A448A
:106950006449002421F812400133DBB2092BF3D93A
:10696000013080B2182801D80023F7E700230DE09A
:106970009C005D492144002008605C4A002142F8E7
:1069800023105B4A224410600133DBB2092BEFD99C
:1069900000240194574B1A6B42F480021A631B6B5C
:1069A00003F480030193019B224606213820FBF764
:1069B0003BF93820FBF76CF94F48504B03604FF41C
:1069C00080334360846001230361037680F82040B4
:1069D0004462C4624A4A8262C4600A22C26180F888
:1069E00030304361FAF726FB10B1012006B010BD2C
:1069F00002940122039207220492059402A93E48C0
:106A0000FAF750FC002858D1012302930223039384
:106A100002A93948FAF746FC002850D10223029314
:106A20000323039302A93448FAF73CFC002848D119
:106A3000032302930723039302A92F48FAF732FC9A
:106A4000002840D104230293082303930DEB030194
:106A50002948FAF727FC002837D105230293092398
:106A6000039302A92448FAF71DFC00282FD106231E
:106A700002930423039302A91F48FAF713FC40BBB7
:106A8000072302930523039302A91B48FAF70AFC84
:106A900008BB0E2302930623039302A91648FAF7B4
:106AA00001FCD0B9174B02930A23039302A91248A1
:106AB000FAF7F8FB98B1022098E7022096E7022047
:106AC00094E7022092E7022090E702208EE702205E
:106AD0008CE702208AE7022088E7022086E7002070
:106AE00084E700BF1441002068430020EC400020F0
:106AF0009043002000380240B843002000200140AD
:106B00000100000F1200001008B50A2202490348D4
:106B1000FAF7BCFA08BD00BFEC400020B8430020E3
:106B20002DE9F8432DED068B204B1878182818D93D
:106B300000201E4B187032E01D4A52F8234000EB33
:106B400080014A001A441B4921F812400133DBB28C
:106B5000092BF1D90130154B1870BDEC068BBDE83F
:106B6000F8830023F4E703EB83014A000244114950
:106B700031F8122007EE902AF8EEE77A37EE277AFE
:106B800001339BB2182BEED9F3EE096AC7EE267AD1
:106B9000094B03EB8003C3ED007A0130C0B2092832
:106BA0000ED800239FED057AECE700BFF03D0020F2
:106BB000EC40002014410020684300200000000049
:106BC000E14DA868F9F778FCC7A3D3E90023F9F7EA
:106BD000CBFCC7A3D3E90023F9F7F0FD0022DB4B80
:106BE000F9F70AFBC4A3D3E90023F9F7E7FDF9F7A6
:106BF0008BFFD74CA060686AF9F75EFCBAA3D3E9B3
:106C00000023F9F7B1FCBAA3D3E90023F9F7D6FDC5
:106C1000BBA3D3E90023F9F7EFFABBA3D3E9002321
:106C2000F9F7CCFD0022CB4BF9F7E8FAF9F76CFF46
:106C300060622868F9F740FCABA3D3E90023F9F7B9
:106C400093FCABA3D3E90023F9F7B8FDF9F75CFF98
:106C5000F9F732FC804689460022BF4BF9F784FCE5
:106C600006460F4642464B469FA1D1E90001F9F77F
:106C7000C3FA02460B4630463946F9F79FFDF9F74D
:106C800043FFF9F719FC0022B44BF9F797FD41ECEB
:106C9000180B41EC100B03F001FC9DA3D3E900237A
:106CA00051EC100BF9F760FC9BA3D3E90023F9F733
:106CB000A5FA06460F46B0EE480AF0EE680A03F061
:106CC000EDFB9FED979BB0EE491AF0EE691A03F0C9
:106CD00067FC95A3D3E9002351EC100BF9F744FCB2
:106CE00002460B4630463946F9F788FA06460F4603
:106CF000B0EE480AF0EE680A03F0D0FB9FED8C8BF3
:106D0000B0EE481AF0EE681A03F04AFC8AA3D3E901
:106D1000002351EC100BF9F727FC02460B463046D6
:106D20003946F9F76BFA02460B4600208C49F9F711
:106D300045FD83A3D3E90023F9F75EFAF9F7E4FEF2
:106D400020606868F9F7B8FB67A3D3E90023F9F777
:106D50000BFC67A3D3E90023F9F730FDF9F7D4FE64
:106D6000F9F7AAFB8046894600227B4BF9F7FCFB2A
:106D700006460F4642464B465BA1D1E90001F9F7B2
:106D80003BFA02460B4630463946F9F717FDF9F74C
:106D9000BBFEF9F791FB0022704BF9F70FFD41ECB8
:106DA0001A0B41EC100B03F079FB59A3D3E9002334
:106DB00051EC100BF9F7D8FB57A3D3E90023F9F7EF
:106DC0001DFA06460F46B0EE4A0AF0EE6A0A03F0D4
:106DD00065FBB0EE491AF0EE691A03F0E1FB52A32D
:106DE000D3E9002351EC100BF9F7BEFB02460B462A
:106DF00030463946F9F702FA06460F46B0EE4A0A1F
:106E0000F0EE6A0A03F04AFBB0EE481AF0EE681A98
:106E100003F0C6FB48A3D3E9002351EC100BF9F7AC
:106E2000A3FB02460B4630463946F9F7E7F902461E
:106E30000B4600204A49F9F7C1FC41A3D3E90023DE
:106E4000F9F7DAF9F9F760FE6060A869F9F734FB41
:106E500025A3D3E90023F9F787FB25A3D3E9002372
:106E6000F9F7ACFCF9F750FEF9F726FB80468946A6
:106E70000022394BF9F778FB06460F4642464B464F
:106E800019A1D1E90001F9F7B7F902460B463046DE
:106E90003946F9F793FCF9F737FEF9F70DFB0022B5
:106EA0002E4BF9F78BFC41EC1A0B41EC100B03F065
:106EB000F5FA17A3D3E9002351EC100BF9F754FBB3
:106EC00015A3D3E90023F9F799F906460F46B0EE6A
:106ED0004A0AF0EE6A0A03F0E1FAB0EE491AF0EE5F
:106EE000691A03F05DFB3DE06666666666660A4009
:106EF0000000000000FEAF407B14AE47E17A843F03
:106F000052B81E85EB51E83F7B14AE47E17A643FEF
:106F1000272C0D145CAB333F0A19C1DCE1796B3FC0
:106F20000000000000000040E4A90B7F2754D53E7C
:106F300000000000000008406C2C41B9B55C8D3E9B
:106F40006666666666127140684300200000E03F96
:106F500090430020000039400000284000002440F9
:106F60000000F03FF8A3D3E9002351EC100BF9F730
:106F7000FBFA02460B4630463946F9F73FF906461A
:106F80000F46B0EE4A0AF0EE6A0A03F087FAB0EE56
:106F9000481AF0EE681A03F003FBEDA3D3E90023CF
:106FA00051EC100BF9F7E0FA02460B463046394631
:106FB000F9F724F902460B460020E749F9F7FEFBF2
:106FC000D7A3D3E90023F9F717F9F9F79DFDA061DD
:106FD000E869F9F771FAD4A3D3E90023F9F7C4FA01
:106FE000D3A3D3E90023F9F7E9FBF9F78DFDF9F70E
:106FF00063FA804689460022D84BF9F7B5FA06466F
:107000000F4642464B46C8A1D1E90001F9F7F4F812
:1070100002460B4630463946F9F7D0FBF9F774FDC6
:10702000F9F74AFA0022CE4BF9F7C8FB41EC1A0BEC
:1070300041EC100B03F032FABFA3D3E9002351EC6B
:10704000100BF9F791FABEA3D3E90023F9F7D6F8AC
:1070500006460F46B0EE4A0AF0EE6A0A03F01EFA40
:10706000B0EE491AF0EE691A03F09AFAB6A3D3E922
:10707000002351EC100BF9F777FA02460B46304625
:107080003946F9F7BBF806460F46B0EE4A0AF0EE6D
:107090006A0A03F003FAB0EE481AF0EE681A03F039
:1070A0007FFAABA3D3E9002351EC100BF9F75CFA9C
:1070B00002460B4630463946F9F7A0F802460B4621
:1070C0000020A549F9F77AFB95A3D3E90023F9F746
:1070D00093F8F9F719FDE061286AF9F7EDF992A341
:1070E000D3E90023F9F740FA91A3D3E90023F9F794
:1070F00065FBF9F709FDF9F7DFF9804689460022BB
:10710000964BF9F731FA06460F4642464B4686A1A2
:10711000D1E90001F9F770F802460B4630463946CE
:10712000F9F74CFBF9F7F0FCF9F7C6F900228C4BA4
:10713000F9F744FB41EC1A0B41EC100B03F0AEF9EC
:107140007DA3D3E9002351EC100BF9F70DFA7CA3D2
:10715000D3E90023F9F752F806460F46B0EE4A0A83
:10716000F0EE6A0A03F09AF9B0EE491AF0EE691AE5
:1071700003F016FA74A3D3E9002351EC100BF9F7CE
:10718000F3F902460B4630463946F9F737F806461A
:107190000F46B0EE4A0AF0EE6A0A03F07FF9B0EE4D
:1071A000481AF0EE681A03F0FBF969A3D3E900234B
:1071B00051EC100BF9F7D8F902460B463046394628
:1071C000F9F71CF802460B4600206349F9F7F6FA76
:1071D00053A3D3E90023F9F70FF8F9F795FC2062E0
:1071E000E868F9F769F950A3D3E90023F9F7BCF986
:1071F0004FA3D3E90023F9F7E1FAF9F785FCF9F792
:107200005BF9804689460022544BF9F7ADF90646F2
:107210000F4642464B4644A1D1E90001F8F7ECFF86
:1072200002460B4630463946F9F7C8FAF9F76CFCC6
:10723000F9F742F900224A4BF9F7C0FA41EC1A0B70
:1072400041EC100B03F02AF93BA3D3E9002351ECE6
:10725000100BF9F789F93AA3D3E90023F8F7CEFF29
:1072600006460F46B0EE4A0AF0EE6A0A03F016F937
:10727000B0EE491AF0EE691A03F092F932A3D3E99D
:10728000002351EC100BF9F76FF902460B4630461C
:107290003946F8F7B3FF06460F46B0EE4A0AF0EE5D
:1072A0006A0A03F0FBF8B0EE481AF0EE681A03F031
:1072B00077F927A3D3E9002351EC100BF9F754F920
:1072C00002460B4630463946F8F798FF02460B4611
:1072D00000202149F9F772FA11A3D3E90023F8F746
:1072E0008BFFF9F711FCE0602869F9F7E5F80EA3C8
:1072F000D3E90023F9F738F90DA3D3E90023F9F70F
:107300005DFAF9F701FCF9F7D7F8804689460022C3
:10731000124BF9F729F906460F4623E0AFF3008038
:1073200066666666661271406666666666660A40EE
:107330000000000000FEAF40272C0D145CAB333F73
:107340000A19C1DCE1796B3FE4A90B7F2754D53ED4
:107350006C2C41B9B55C8D3E0000F03F0000284028
:107360000000244042464B4681A1D1E90001F8F7D4
:1073700043FF02460B4630463946F9F71FFAF9F744
:10738000C3FBF9F799F800227D4BF9F717FA41ECA6
:107390001A0B41EC100B03F081F86BA3D3E9002327
:1073A00051EC100BF9F7E0F869A3D3E90023F8F7E3
:1073B00025FF06460F46B0EE4A0AF0EE6A0A03F0D1
:1073C0006DF8B0EE491AF0EE691A03F0E9F862A31D
:1073D000D3E9002351EC100BF9F7C6F802460B462F
:1073E00030463946F8F70AFF06460F46B0EE4A0A1D
:1073F000F0EE6A0A03F052F8B0EE481AF0EE681A9E
:1074000003F0CEF856A3D3E9002351EC100BF9F7A3
:10741000ABF802460B4630463946F8F7EFFE024617
:107420000B4600205749F9F7C9F94FA3D3E90023C8
:10743000F8F7E2FEF9F768FB20616869F9F73CF8B4
:107440004BA3D3E90023F9F78FF84BA3D3E900232B
:10745000F9F7B4F9F9F758FBF9F72EF880468946A1
:107460000022494BF9F780F806460F4642464B4644
:107470003FA1D1E90001F8F7BFFE02460B463046B6
:107480003946F9F79BF9F9F73FFBF9F715F80022B0
:107490003B4BF9F793F941EC1A0B41EC100B02F05E
:1074A000FDFF29A3D3E9002351EC100BF9F75CF899
:1074B00027A3D3E90023F8F7A1FE06460F46B0EE56
:1074C0004A0AF0EE6A0A02F0E9FFB0EE491AF0EE5D
:1074D000691A03F065F820A3D3E9002351EC100BDF
:1074E000F9F742F802460B4630463946F8F786FE71
:1074F00006460F46B0EE4A0AF0EE6A0A02F0CEFFE8
:10750000B0EE481AF0EE681A03F04AF814A3D3E973
:10751000002351EC100BF9F727F802460B463046D2
:107520003946F8F76BFE02460B4600201549F9F77D
:1075300045F90DA3D3E90023F8F75EFEF9F7E4FA65
:107540006061FFF70ABB00BF272C0D145CAB333F13
:107550000A19C1DCE1796B3FE4A90B7F2754D53EC2
:107560006C2C41B9B55C8D3E6666666666127140EC
:107570006666666666660A400000000000FEAF4070
:10758000000024400000F03F00002840014B187824
:10759000704700BFF03D0020024B03EB800090EDF0
:1075A000000A70479043002000B58BB02348244B5D
:1075B00003600023037643768376C37603774377AD
:1075C0008360C3604FF4403303614FF48013436121
:1075D0000C234360F9F738FF18B101200BB05DF8B8
:1075E00004FB002305930693012207924FF40071D8
:1075F00000910193134902910393049308920E237F
:10760000099369460D48F9F7C5FF88B90B48FAF7A1
:1076100057F878B902210948FAF7AAF960B90A4B74
:107620001A221A60D860986008221A611875D5E786
:107630000220D3E70320D1E70420CFE70044002055
:1076400000640040E0FF010034440020082901D913
:107650000120704708B50246074B08490848FAF769
:107660005DF830B90648FAF7CEF80328FAD10020C1
:1076700008BD0220FCE700BF304400203444002055
:107680000044002008B5054B054A00210548FAF7DB
:10769000D5F808B9002008BD0220FCE728440020E6
:1076A0004C44002000440020014B1878704700BF74
:1076B0004C440020014B185C704700BF2844002058
:1076C00000F17843B3F5804F64D3A3F58043B3F55D
:1076D000804F61D300F17843A3F50043B3F5804FA9
:1076E0005CD300F17843A3F54043B3F5804F57D303
:1076F00000F1774303F57F03B3F5803F52D300F1E8
:10770000774303F57E03B3F5003F4DD300F1774394
:1077100003F57C03B3F5003F48D300F1774303F54D
:107720007A03B3F5003F43D300F1774303F57803C1
:10773000B3F5003F3ED300F1774202F57602B2F591
:10774000003F39D300F1774202F57402B2F5003FF1
:1077500034D3B3F5804F33D300F17843A3F504233A
:10776000B3F5804F2ED300F17843A3F50823B3F58A
:10777000804F29D300F17843A3F50C23B3F5804F54
:1077800024D300F1774000F57700B0F5803F1FD299
:10779000102070470020704701207047022070477A
:1077A000032070470420704705207047062070476B
:1077B0000720704708207047092070470A2070474B
:1077C0000C2070470D2070470E2070470F20704727
:1077D0001320704708B5FAF737FD024BF322DA6041
:1077E00008BD00BF003C024030B587B005460C46DE
:1077F000FFF7F0FF2846FFF763FF00230093029096
:1078000003940223049305A96846FAF753FE10B1C6
:10781000012007B030BDFAF72FFD0020F9E7000086
:10782000034B036054330B6080231360704700BF29
:10783000F43D002008B51248124B03604FF480431A
:107840000361114B4360002343618360C3610362A2
:107850001122C2608361FBF789FB08B1012008BDDA
:1078600000210748FCF7D2FB08B10120F7E700210F
:107870000348FCF7EDFB08B90020F0E70120EEE734
:107880006844002000540040801A060000B583B010
:10789000084A012353706423009302237C21064885
:1078A000FBF73EFC18B9002003B05DF804FB012093
:1078B000FAE700BF0C0000206844002000B583B048
:1078C000084A0C2353706423009302237C2106484A
:1078D000FBF726FC18B9002003B05DF804FB01207B
:1078E000FAE700BF0C0000206844002010B582B009
:1078F0003220FDF72DFA1A4A2C235370642300938B
:1079000002237C211748FBF70BFC18B10124204609
:1079100002B010BD0220FDF71BFAFFF7CFFF08B140
:107920000124F4E70220FDF713FAFFF7AFFF044646
:1079300008B10124EBE70220FDF70AFA084A062302
:1079400053706423009302237C210648FBF7E8FB75
:1079500008B10124DBE70220FDF7FAF9D7E700BF01
:107960000C0000206844002070B584B006460D4627
:1079700040238DF80C300024A54210DD335D8DF8D6
:107980000D3064230093022303AA7C210648FBF7F1
:10799000C7FB38B90120FDF7DBF90134ECE7002023
:1079A00004B070BD0120FBE76844002091B960F08D
:1079B0007F000E4B587000B583B064230093022300
:1079C0000A4A7C210A48FBF7ABFB60B9002003B0F0
:1079D0005DF804FB012901D00120704760F03F00F1
:1079E000024B5870E7E70120F1E700BF0C000020D0
:1079F0006844002070B52DED028BB0EE408A0D4634
:107A00001C46B0F57A7F32D3774BA3FB00139B095A
:107A100003F130067549CE714FF47A7101FB130002
:107A2000632828D9724BA3FB00135B0903F13006CE
:107A30006E490E72642101FB130009281FD96D4B9A
:107A4000A3FB0030C0083030684B9872012A1AD06E
:107A50002ABB664B55229A734E22DA734C221A7453
:107A60004F225A7443229A744B22DA7417E05F4B08
:107A70002021D971D4E75D4B30211972DDE75B4BD2
:107A800030219972E2E7594B20229A73DA734C2223
:107A90001A744F225A7443229A744B22DA740021CA
:107AA0000846FFF783FF20B101231846BDEC028B87
:107AB00070BD10215048FFF757FF0146002840F0E5
:107AC0009080B5EEC08AF1EE10FA47D4DFED4B7A24
:107AD00028EE278AFCEEC87A17EE903AB3F57A7F43
:107AE00046D3414AA2FB0302920902F130063F4805
:107AF000C6764FF47A7000FB123301293CD0632B19
:107B00003ED93B4AA2FB0312520902F13000374929
:107B10000877642101FB1233092B35D9354AA2FBC2
:107B20000323DB083033314A93778DBB2F4B4F2231
:107B300083F82320462283F8242083F8252020225E
:107B400083F826203034294B83F827400121002078
:107B5000FFF72CFF00283AD00123A6E7DFED287AB3
:107B600028EE278AFCEEC87A17EE903A0121B5E795
:107B70001E4A2020D076C0E71C4A2D21D176BEE7D0
:107B80001A4A30211177C7E7184B30229A77CCE791
:107B9000012D0FD0022DD5D1144B442283F8232080
:107BA000452283F82420462283F82520522283F898
:107BB0002620C7E70D4B432283F823204F2283F86A
:107BC000242083F825204C2283F82620BAE71021B0
:107BD0000C48FFF7C9FE034600283FF466AF0123B7
:107BE00063E7012361E700BFD34D62100C00002062
:107BF0001F85EB51CDCCCCCC100000200000C8423A
:107C00000000C8C22400002000B583B00A4A92F8E0
:107C10002D3043F0200382F82D306423009303239A
:107C20002C3280210548FBF77BFA18B9002003B0FD
:107C30005DF804FB0120FAE70C00002068440020F6
:107C400000B583B00A4A92F82D3023F0200382F861
:107C50002D306423009303232C3280210548FBF749
:107C60005FFA18B9002003B05DF804FB0120FAE7C1
:107C70000C0000206844002000B583B00A4A92F846
:107C80002D3043F0100382F82D306423009303233A
:107C90002C3280210548FBF743FA18B9002003B0C5
:107CA0005DF804FB0120FAE70C0000206844002086
:107CB00000B583B00A4A92F82D3023F0100382F801
:107CC0002D306423009303232C3280210548FBF7D9
:107CD00027FA18B9002003B05DF804FB0120FAE789
:107CE0000C0000206844002000B585B004AA0023E1
:107CF00002F8043D64230093012380210448FBF72C
:107D00000FFA18B9002005B05DF804FB0120FAE76E
:107D10006844002000B585B0012304AA02F8043DA0
:107D20006421009180210548FBF7FAF918B9002079
:107D300005B05DF804FB0120FAE700BF68440020AD
:107D400000B585B000238DF80C308DF80D3064231C
:107D50000093022303AA81210748FBF79BFA40B94D
:107D60009DF80D009DF80C3040EA032005B05DF849
:107D700004FB4FF6FF70F9E76844002000B585B0BA
:107D800004AA002342F8043D6423009304238121C4
:107D90000B48FBF77FFA80B99DF80D009DF80C3079
:107DA00040EA03209DF80F3040EA03409DF80E3072
:107DB00040EA036005B05DF804FB4FF6FF70F9E799
:107DC000684400200000000030B589B0044600235C
:107DD0008DF81C308DF81D308DF818308DF8193065
:107DE0008DF814308DF8103018228DF80C208DF895
:107DF00008308DF8093064230093012303AA56212B
:107E00006B48FBF78DF9002840F0A08064230093B5
:107E1000022302AA57216648FBF73CFA002840F0EB
:107E200099809DF8093013F0080F00D034B113F099
:107E3000040F00F09280012C40F09280002C79D148
:107E400000238DF8103001238DF814306423009343
:107E5000012304AA56215648FBF762F9002840F096
:107E6000828064230093022306AA57215048FBF71F
:107E700011FA00287AD164230093012305AA562120
:107E80004B48FBF74DF9002873D16423009302237C
:107E900007AA57214648FBF7FDF900286CD19DF849
:107EA000183013F0300F6AD11B0603F070639DF891
:107EB000192043EA02439DF81C2043EA02239DF85F
:107EC0001D001843F8F7D6FA2FA3D3E90023F8F7DB
:107ED0004BFB0022374BF8F747FB2DA3D3E90023D8
:107EE000F8F742FB9FED2C1B41EC100B02F058FB06
:107EF0002BA3D3E9002351EC100BF8F735FB024616
:107F00000B4600202C49F8F759FC27A3D3E900239E
:107F1000F8F72AFB04460D4600220023F8F796FDE9
:107F200088B90022254B20462946F8F71DFBF8F7B3
:107F3000CBFD0DE0012C89D102238DF810300323F5
:107F40008DF8143082E700240025EAE74FF6FF7031
:107F500009B030BD4FF6FF70FAE74FF6FF70F7E754
:107F60004FF6FF70F4E74FF6FF70F1E74FF6FF7042
:107F7000EEE74FF6FF70EBE74FF6FF70E8E74FF6DE
:107F8000FF70E5E7AFF3008000000000D0129341DE
:107F9000F1D4C853FB21194000000000000000404C
:107FA000C5C5F6FF1609E23E000000A2941A6D4214
:107FB000684400200000303E0000F03F00005940BF
:107FC00010B4134B1C780CB3002014E0114A02EBE0
:107FD000C0020021D1540133DBB2072B0AD8132889
:107FE000F4D0421C0B4901EBC202D25C01EBC00190
:107FF000CA54F0E70130844201DD0023EDE7013C83
:10800000034B1C7000205DF8044B70470120FAE719
:1080100048400020BC4400202DE9F0418CB00024F1
:108020000794089409940A940B940194744B1A6B66
:1080300042F004021A631A6B02F004020192019AE0
:1080400002941A6B42F080021A631A6B02F08002EB
:108050000292029A03941A6B42F001021A631A6B9D
:1080600002F001020392039A04941A6B42F0100288
:108070001A631A6B02F010020492049A05941A6BA8
:1080800042F008021A631A6B02F008020592059A80
:1080900006941A6B42F002021A631B6B03F0020390
:1080A0000693069BDFF86C8122464FF480714046B0
:1080B000FAF743FB534D22464FF480712846FAF7F6
:1080C0003CFB224680212846FAF737FB22464FF434
:1080D00080612846FAF731FB22464FF4805128464A
:1080E000FAF72BFB22464FF400612846FAF725FBEE
:1080F00022464FF400512846FAF71FFB22464FF460
:1081000080412846FAF719FB0126089609940A943B
:108110004FF48077079707A94046FAF717FA0797B1
:1081200007A92846FAF712FA8023079307A92846D9
:10813000FAF70CFA4FF48063079307A92846FAF779
:1081400005FA4FF48053079307A92846FAF7FEF97A
:108150004FF40063079307A92846FAF7F7F94FF49D
:108160000053079307A92846FAF7F0F94FF4804324
:10817000079307A92846FAF7E9F9234B08930994CE
:108180004FF40043079307A92846FAF7DFF91F4B7E
:108190000893099407961E4C07A92046FAF7D6F9CA
:1081A0000425079507A92046FAF7D0F9022307937B
:1081B00007A92046FAF7CAF9032206212820F9F771
:1081C00033FD2820F9F764FD2A4606210820F9F737
:1081D0002BFD0820F9F75CFD052206210720F9F7A1
:1081E00023FD0720F9F754FD062211461046F9F742
:1081F0001BFD0620F9F74CFD0CB0BDE8F08100BF77
:108200000038024000100240000011100000311040
:10821000000C02400000024008B5FAF715F8FAF722
:1082200035F81C4BDB6813F4803FFAD1194B9A697F
:1082300042F080429A615A6942F080425A619A69DA
:1082400022F008029A619A6942F004029A615A691E
:1082500022F008025A615A6942F004025A615A69CE
:1082600042F002025A610B4BDB6813F4803FFAD1F3
:10827000084B5B6913F0100F07D1074B01225A70AE
:10828000FAF718F8F9F7F8FF08BD034B02225A7005
:10829000F6E700BF003C02404840002008B5F9F76F
:1082A000D3FFF9F7F3FF194BDB6813F4803FFAD1E2
:1082B000164B9B6913F0100F1DD1144A936943F0BC
:1082C00010039361114B5B6913F0100F18D10F4A23
:1082D000536943F0100353610C4A536943F002039E
:1082E00053610A4BDB6813F4803FFAD1F9F7E2FFE0
:1082F000F9F7C2FF08BD054A9369103B9361E1E7B6
:10830000024A5369103B5361E6E700BF003C02405C
:1083100008B5F8F7AFF80022144BF8F74FFAF8F762
:10832000F3FB134B5B68013B07EE903AF8EE677A7C
:1083300007EE100A67EE877ADFED0E6A87EEA67AFF
:10834000BCEEC77A0C4981ED017A00220B48FCF79C
:1083500009FC08B1012008BD00210848FCF782FC97
:1083600008B90020F7E70120F5E700BF00005940F9
:10837000484000200000C842B4450020C44A002004
:1083800008B51C4B1B681C4AA2FB03239B0B013B3B
:108390001A494B6000228A6019481A490160C3607B
:1083A000426082600261FCF78CFB08B1012008BDCD
:1083B000154970230B6000220A6102238B60CA609A
:1083C0004FF480734B618A610C4B9B684B600C4887
:1083D000FCF7C8FB08B10120E9E700210848FCF7D9
:1083E00041FC08B10120E2E7054801F027FF002029
:1083F000DDE700BF480000205917B7D148400020F2
:10840000C44A002000000140B445002000000000E4
:108410002DE9F8434FF000094F464D464E4669E0BE
:108420005FFA88F0FFF7B8F808EB880293004B4436
:108430009F4A02EB830383ED000A08F10108B8F1BB
:10844000090FEDDD09F10103DBB2132B00D81C4647
:108450004FF0000E1EE04FF00008F0E74FEA8E0CE0
:108460000CEB0E039A000A44914800EB8202D2ED15
:10847000006AF3EE047A86EEA77A8E4B6344D3ED5E
:10848000007A77EE877AC3ED007A01311329E5DDB2
:108490000EF1010EBEF1090F06DC864B03EB8E03D5
:1084A00000221A600021F1E7824BD3ED007A93EDB0
:1084B000017A77EE877AB6EE007A67EE877A7E4B9E
:1084C000C3ED037AA1461CE093F81180B8F1000FC8
:1084D0001BD1002D5ED1002E48D0012E50D0764BFE
:1084E00093F82040012C00F0B8800220FCF730FC0B
:1084F000FCF722FCFEF714FBFFF748F804460028BF
:10850000A9D06D4B1C7C012CDED0012CE7D16A4B2D
:108510005C7C012CE3D1002D00F09080012DDED198
:10852000654B5B69642BDAD9FFF728FC4FF6FF73C4
:10853000984200F08D80C0B2F7F79CFF00225F4B9D
:10854000F8F712F856A3D3E90023F8F70DF8002244
:108550005B4BF7F751FE00225A4BF8F705F8564CE3
:10856000F8F7B2FAA0610025E561B8E7FFF7D2FBA2
:108570000028B2D1504B00225A6125462646AEE76C
:10858000FFF7B2FB0028AAD14B4A002151613546C2
:108590000646A4E7012DA2D1474B5B69642B9ED907
:1085A000FFF7CEFBF7F766FF04460D461EBB3EA362
:1085B000D3E90023F8F740FA20B13F4B00229A613B
:1085C00035468CE700223D4B20462946F7F7CCFF85
:1085D00033A3D3E90023F7F7C7FF0022384BF7F79F
:1085E0000BFE0022374BF7F7BFFFF8F76DFA324B5F
:1085F0009861354673E7012E01D035466FE72AA30F
:10860000D3E90023F8F718FA20B12B4B0022DA61E6
:10861000454664E70022294B20462946F7F7A4FF88
:108620000022284BF7F7A0FF0022264BF7F79CFF0C
:10863000F8F74AFA204BD861454650E7FFF754FB5C
:1086400000287FF46BAF1C4B00225A61254646E799
:10865000194B00229A61DA6141E75B6A642B7FF66D
:1086600044AF3846FFF7B0FB8046F7F703FF0EA391
:10867000D3E90023F8F7E0F950B10023124A42F899
:1086800027300D4A82F820300B4B00225A622CE72B
:108690000D4B43F827800FB92746F5E70027F3E78E
:1086A0000000000000A0644000000000E0FFEF4078
:1086B0007447002070460020484000200000F03E33
:1086C0000000444000005940D445002008B5642112
:1086D0000E4B1868FCF750FB0028F8D10C4B83F8C0
:1086E00028000AE00B4A02EBC0020021D1540133FA
:1086F000DBB2072BF6D90130C0B2132801D8002312
:10870000F7E7024B1868FCF76FFB08BD2446002012
:10871000484000209846002008B564210E4B186898
:10872000FCF72AFB0028F8D10C4B18700AE00C4A21
:1087300002EBC0020021D1540133DBB2072BF6D982
:108740000130C0B2132801D80023F7E7024B1868A4
:10875000FCF74AFB08BD00BFD04500204840002080
:10876000BC44002010B582B00446294B93F8283051
:10877000142B08D06421274B1868FCF7FDFA002859
:10878000F8D1002335E0FFF7A1FF234B93E8030066
:1087900002AB03E9030064211E4B1868FCF7ECFAF6
:1087A0000028F8D100230CE0194A92F8280002AA08
:1087B0001A4412F8081C194A02EBC002D1540133C2
:1087C000DBB2072BF0D9124A92F82830013382F835
:1087D0002830104B1868FCF707FB012016E00C4A04
:1087E00092F82800E15C0D4A02EBC002D15401333B
:1087F000DBB2072BF3D9064A92F82830013382F80E
:108800002830044B1868FCF7EFFA002002B010BDC6
:108810004840002024460020F8BB0008984600206D
:1088200010B5214B93F82830002B3BD064211F4B0F
:108830001868FCF7A1FA0028F8D108211C48FEF7B7
:1088400005FF0446022801D0002019E0174B1868E4
:10885000FCF7CAFA24E0164A02EBC0020021D15408
:108860000133DBB2072B0AD81328F4D0421C10497D
:1088700001EBC202D25C01EBC001CA54F0E7013047
:10888000094B93F82830834201DD0023EAE7013BDE
:10889000054A82F82830054B1868FCF7A5FA002431
:1088A000204610BD0124FBE748400020244600205C
:1088B0009846002038B5134B1B78142B1FD0642129
:1088C000114B1868FCF758FA0028F8D100240AE088
:1088D0000C4B1D782046FEF7EDFE0C4B03EBC50359
:1088E00018550134E4B2072CF2D9064A1378013343
:1088F0001370054B1868FCF777FA002038BD01208B
:10890000FCE700BF48400020D0450020BC440020C8
:1089100008B50268194B9A4204D0194A936D013385
:10892000936508BDF8F7DAFA154BDA6A0132DA62B4
:108930001A6B01321A635A6B01325A639A6B013215
:108940009A63DA6B0132DA631A6C01321A645A6C78
:1089500001325A645A6901325A615A6A01325A62C2
:108960009A6C01329A64DA6C0132DA641A6D01325F
:108970001A655A6D01325A65D3E700BF001C0040EA
:1089800048400020B0F5004F14D010B52DED028BFB
:10899000044601281ED0012C26D0022C62D0022CC5
:1089A0006AD0042C00F0A180042C00F0A980BDEC5A
:1089B000028B10BD684B93F85C30012BE5D1664B00
:1089C00093F85D30002B40F0C580634B012283F8A3
:1089D0005D20704701216148F9F7A8FE0128DAD12E
:1089E0005D4B00225A64E2E701215C48F9F79EFEE4
:1089F0000028D2D15A4B1B78012BCED0564B5B6C42
:108A0000A3F1650140F65232914220D8544B93EDC8
:108A1000018A18EE100AF7F74FFD0022514BF7F7C5
:108A2000EBFB00220023F8F725F860B1B5EEC08A11
:108A3000F1EE10FA07DDF6EE007A38EE678A484B61
:108A400083ED018AB3E7464B00225A60AFE740F658
:108A5000B7329342ABD90023414A13723E4A82F89F
:108A60005E30A4E702213D48F9F760FE012896D167
:108A7000394B0022DA649AE702213848F9F756FEAA
:108A800000288ED1364B1B78012B8AD0324BDB6C01
:108A9000A3F1650140F65232914219D8304B93ED63
:108AA000018A18EE100AF7F707FD00222D4BF7F7A1
:108AB000A5FB00222C4BF7F7D3FF00283FF477AF3C
:108AC000F6EE007A38EE278A254B83ED018A6EE7B1
:108AD00040F6B73293427FF66AAF214B01221A72F9
:108AE0001D4B002283F85E2061E704211B48F9F743
:108AF0001DFE01287FF458AF174B00225A6456E739
:108B000004211648F9F712FE00287FF450AF144BE9
:108B10001B78012B3FF44BAF0F4B5B6CA3F165014E
:108B200040F6523291420CD940F6B73293427FF66A
:108B30003EAF0B4B02221A72074B002283F85E20D5
:108B400035E74FF4806100F1804000F50430F9F71B
:108B5000FAFD2CE7704700BF48400020000C02409F
:108B60003C0000200000E03F0000244008B5FEF774
:108B700089FD00B108BDFEF797FD1028FAD100204D
:108B8000FEF798FDFE28F5D10720FEF793FDFD289E
:108B9000F0D10120FEF78EFDF12804D0054B012213
:108BA00083F86020E6E7034B00229A65012283F8F0
:108BB0005F20DFE74840002010B582B0FE248DF82A
:108BC00000408DF801008DF802108DF803208DF81B
:108BD00004309DF810308DF805309DF814308DF874
:108BE00006309DF818308DF807306846FFF7BAFD5B
:108BF00002B010BDF0B585B04FF48071B148F9F7FF
:108C0000A2FD00242546DAE14FF4FA70FCF7A0F843
:108C1000F9F74CF8E0E1FEF769FE002840F0EE813C
:108C20000124EBE1A849D1ED017A9FEDA87A67EE26
:108C3000877AA74890F85E300A78097A90ED030A9F
:108C4000FCEEE77A17EE900AFEF7D4FED6E101219A
:108C5000A048F9F76BFD012840F0DD8102219D4815
:108C6000F9F764FD012840F0D681974B1B78012B62
:108C700007D0954B01221A70954B0022DA645A6492
:108C8000C9E1914B00221A70F6E7934B5B6F13F02A
:108C9000005F0ED1904B5B6F13F0805F09D18E4B5C
:108CA0005B6F13F0007F04D18B4B5B6F13F0804F31
:108CB0002AD0894B5B6F13F0005F15D1864B5B6F39
:108CC00013F0805F25D1844B5B6F13F0007F2CD0B5
:108CD000FD230293002301930093A0230422492142
:108CE0000120FFF769FF0AE0FD23029300230193AF
:108CF0000093A023012249211046FFF75DFF764A29
:108D0000536F43F080735367714B022283F86220E4
:108D100087E1FD230293002301930093A023032204
:108D200049210120FFF748FFE9E7FD2302930023D3
:108D300001930093A023022249210120FFF73CFF69
:108D4000DDE7FD2302930026019600963346A0221C
:108D50004B210120FFF730FF5D4B5E6578E100227B
:108D60005B4B5A63FD230293019200921346F0215C
:108D70001920FFF721FF71E1554B93F86330012B68
:108D80000FD0E3B1524B93F8643033BB00224FF461
:108D900080515248F9F7D1FC4D4B002283F85D20F9
:108DA00062E14E4E01224FF400613046F9F7C5FCF6
:108DB00001224FF480713046F9F7BFFCE2E7474EDD
:108DC00000224FF400613046F9F7B7FC00224FF45F
:108DD00080713046F9F7B1FCD4E701224FF480519D
:108DE0003E48F9F7AAFCD7E7002280213B48F9F773
:108DF000A4FC374B00229A6693F86430012B07D00D
:108E0000334B002283F86320012283F85E2036E191
:108E10002F4B83F864209A63F2E7012B1CD0022BBE
:108E200040F02D812A4B93F85E30002B00F09F809C
:108E3000012B40F02481264BDB6B294A934240F200
:108E40001E81234A002182F8631082F85E101364A9
:108E50001D4B01221A7212E11D4B93F86330012B56
:108E60002AD01B4B93F85E30002B3DD1184B42F2B9
:108E7000AC629A66012283F85E20154B1A6C194B7E
:108E80009A4240F2FC80104BD3ED017AB7EE007AA3
:108E900077EEC77A0E4B93ED037AF4EEC77AF1EED4
:108EA00010FA40F3EC80084B02221A72084B0022A1
:108EB00083F85E201A64E2E0054B002283F8632009
:108EC000CFE700BF000002403C0000200000C84285
:108ED00048400020000C02400038024000100240D0
:108EE00040771B0000974901012B25D0022BC4D1EC
:108EF0006C4B5868F7F7E0FA00226B4BF7F77CF9F8
:108F000006460F46694BD868F7F7D6FA02460B4675
:108F100030463946F7F7B8FD0028AED0634E00273B
:108F200086F864703A4680216148F9F706FCB76319
:108F3000012386F85E30A0E75A4A92ED017A5B4A37
:108F4000D2ED037AB4EEE77AF1EE10FACED5916B5A
:108F5000584A9142CAD9554E012286F86420802190
:108F60005348F9F7EAFB022386F85E3085E70022D2
:108F700080214F48F9F7E1FB4C4B00229A6693F8A9
:108F80006430012B08D0494B012283F86320002173
:108F9000D96383F85E2072E0444B83F864209A63BF
:108FA000F1E70A30D866FFF7B3F906E03F4B00223D
:108FB000DA663E4BD86EFFF7ABF9FBF7BDFE3B4BD5
:108FC0001B6BB3F5FA7F43D9384B00221A6393F831
:108FD0006130012B3FF418AE344BDB6AB3F5FA6F06
:108FE00006D92DB90135EDB2304B012283F85C2052
:108FF000002C3FF410AE002C7FF414AE2B4BDA6C37
:1090000040F6B8339A4206D9284B5A6C40F6B8332A
:109010009A423FF61CAE254B93F86230012B3FF489
:1090200034AE254BD3ED007A93ED017A77EEC77A13
:10903000FDEEE77A17EE903A002BB8BF5B42072BA4
:1090400006DD1A4B5A6D41F288339A423FF679AEEB
:10905000164B5B6BB3F57A6F3FF681AE134B93F80B
:109060005D30012B3FF488AE0E4B1B7A002B7FF452
:10907000D4AE0E4B93F85E30002B3FF4B5AE0B4BE5
:109080001B6D092B99D9094B00221A659A6ED86E6F
:10909000824286D8824290D2642887D96438034BB2
:1090A000D86686E73C0000200000F83F48400020DA
:1090B000001002405034030070460020F0B52DED42
:1090C000028B85B0FFF728FB09E0FFF7F3FB0028D0
:1090D000FBD1B34B002283F86020FBF72DFEB04B91
:1090E00093F86030012BF0D0AD4B1B78002BF4D0FF
:1090F0006421AC4B1868FBF73FFE0028EDD1AA4B6A
:109100005B78192B06D0FEF75BFFA64B1868FBF7C0
:109110006BFEE2E74FF48071A448F9F714FBA24B11
:109120009C78B02C34D0B12C4FD0B22C70D0B32C52
:109130007CD0B42C00F08880A4F11003DBB2092BA2
:1091400000F29C809A4A02EB830393ED008A18EEAA
:10915000100AF7F7B1F906460F460022954BF7F7CC
:1091600003FAF7F7B1FCB5EEC08AF1EE10FA7BD442
:1091700000238D4A5578FD220292A022019200938D
:10918000C0F30723C2B221462846FFF715FDBAE710
:10919000834B93F870300BB100230FE0804B00221B
:1091A0005A67012283F87020834B1868FBF750FE42
:1091B000A9E77D4AD15C814AD1540133072BF8DD00
:1091C000774B012283F878209DE77D4B1A687D4B11
:1091D0009A420BD0744B5878FD23029300230193DD
:1091E0000093AF22B121FFF7E7FC8CE7FFF756F8B9
:1091F0006D4B5878FD230293002301930093A02226
:10920000B121FFF7D9FC664B012283F861207AE790
:10921000654B5878FD23029300230193A02300930C
:1092200001231A46B221FFF7C7FC6CE75C4B5A7862
:109230005D4B5878FD230293002301930093A023F4
:10924000B321FFF7B9FC5EE7574B5878FD23029333
:10925000002301930093A022B421FFF7ADFC504BF3
:10926000012283F861204EE70022574B30463946F1
:10927000F7F77AF9F7F728FC01237AE71A2C1FD0C1
:10928000202C4BD0212C6AD0222C00F0A580232C3E
:1092900000F0C280242C00F0E080252C40F01081EA
:1092A000414BDA78012A40F2F9805878FD23029385
:1092B000002301930093AF232521FFF77DFC22E7D4
:1092C000374B93ED038A18EE100AF7F7F5F80446CA
:1092D0000D460022374BF7F747F9F7F7F5FBB5EEE8
:1092E000C08AF1EE10FA0FD400232F4A5478FD22E1
:1092F0000292A02201920093C0F30723C2B21A2166
:109300002046FFF759FCFEE600222F4B2046294657
:10931000F7F72AF9F7F7D8FB0123E6E7224BDA78CB
:10932000012A0AD95878FD23029300230193009360
:10933000AF232021FFF740FCE5E64FF4807123487E
:10934000F9F7FBF9184BDA785878FD2302930023DC
:1093500001930093A0232021FFF72EFCD3E6124BAC
:10936000DA78012A11D8012A32D10D4B42F2AC61D0
:1093700099660D4B5878FD230293002301930093C7
:10938000A0232121FFF718FCBDE65878FD230293A6
:10939000002301930093AF232121FFF70DFCB2E6D8
:1093A00048400020D0450020BC440020000002407E
:1093B00070460020000059402846002050470020F9
:1093C0000000080800000320000059C000100240FF
:1093D000AA4B00219966CCE7A94BDA78012A0AD971
:1093E0005878FD230293002301930093AF23222199
:1093F000FFF7E2FB87E68021A248F9F79EF9A04B30
:10940000DA785878FD230293002301930093A02378
:109410002221FFF7D1FB76E6994BDA78012A0AD9A7
:109420005878FD230293002301930093AF23232157
:10943000FFF7C2FB67E64FF480619248F9F77DF9C8
:109440008F4BDA785878FD23029300230193009321
:10945000A0232321FFF7B0FB55E6894BDA78012AD8
:109460000AD95878FD230293002301930093AF2378
:109470002421FFF7A1FB46E64FF480518148F9F71C
:109480005CF97F4BDA785878FD230293002301932F
:109490000093A0232421FFF78FFB34E64FF40061F3
:1094A0007848F9F74AF9764BDA785878FD23029331
:1094B000002301930093A0232521FFF77DFB22E6E3
:1094C000262C18D0272C37D0282C56D16B49CB6EA0
:1094D0006422B3FBF2F291F8643069484078FD24CD
:1094E0000294A024019491F863100091D2B2282133
:1094F000FFF762FB07E6624BDA78012A0AD958784F
:10950000FD230293002301930093AF232621FFF74D
:1095100053FBF8E54FF400515A48F9F70EF9584B50
:10952000DA785878FD230293002301930093A02357
:109530002621FFF741FBE6E5514BDA78012A0AD9EB
:109540005878FD230293002301930093AF23272132
:10955000FFF732FBD7E54FF480414A48F9F7EDF8C1
:10956000474BDA785878FD23029300230193009348
:10957000A0232721FFF720FBC5E5012C10D10121F5
:10958000414B197200233D4A82F85E303C4A5078C4
:10959000FD22029201930093A022FFF70DFBB2E59A
:1095A000022C10D10221384B19720023334A82F861
:1095B0005E30334A5078FD22029201930093A0223C
:1095C000FFF7FAFA9FE5032C10D100232E4A1372FD
:1095D0002A4A82F85E302A4A5078FD22029201938C
:1095E0000093A0220321FFF7E7FA8CE5042C28D191
:1095F000234CE378227943EA022307EE903AF8EE0F
:10960000E77ADFED226A87EEA67A1F4B83ED017AB7
:1096100017EE100AF6F750FF00221D4BF7F7CEF8B1
:10962000F7F752FA02466078FD2302930023019374
:10963000A0230093C2F30723D2B20421FFF7BCFAA0
:1096400061E5052C26D1104B5868F6F735FF00224E
:109650000F4BF7F7B3F8F7F737FA0246084B58788D
:10966000FD23029300230193A0230093C2F3072359
:10967000D2B20521FFF7A0FA45E500BF484000201F
:10968000BC440020001002403C0000200000C84202
:1096900000005940062C0ED19C4B01221A709C4BA5
:1096A0005878FD230293002301930093A022062102
:1096B000FFF782FA27E5072C0DD10023934A137098
:1096C000934A5078FD22029201930093A022072131
:1096D000FFF772FA17E5082C10D18E4B93F85E3025
:1096E0008A4A127A8A494878FD2102910021019123
:1096F000A02100910821FFF75FFA04E5092C14D19D
:10970000844B1A6C4FF47A73B2FBF3F2804B5878A7
:10971000FD23029300230193A0230093C2F30723A8
:10972000D2B20921FFF748FAEDE4302C10D1794B81
:10973000DA69774B5878FD23029300230193A02325
:109740000093C2F30723D2B23021FFF735FADAE4EF
:10975000312C10D16F4B9A696D4B5878FD230293D1
:1097600000230193A0230093C2F30723D2B2312137
:10977000FFF722FAC7E4322C1AD1FEF745FA58B99E
:10978000634B5878FD230293002301930093A0229A
:109790003221FFF711FAB6E45D4B5878FD230293AE
:1097A000002301930093AF223221FFF705FAAAE4C8
:1097B000332C1AD1FEF744FA58B9554B5878FD238B
:1097C0000293002301930093A0223321FFF7F4F9C1
:1097D00099E44F4B5878FD230293002301930093A3
:1097E000AF223321FFF7E8F98DE4342C1CD1FEF7CA
:1097F0005FFA68B90023474A5374454A5078FD22FE
:10980000029201930093A0223421FFF7D5F97AE464
:109810003F4B5878FD230293002301930093AF221E
:109820003421FFF7C9F96EE4352C1DD1FEF724FA77
:1098300070B9384B01225A74354B5878FD23029386
:10984000002301930093A0223521FFF7B5F95AE4D4
:109850002F4B5878FD230293002301930093AF22EE
:109860003521FFF7A9F94EE4402C25D1294B93F877
:10987000203083B9284B1A68254B5878FD23029372
:1098800000230193AF230093C2F30723D2B24021F8
:10989000FFF792F937E4204B1A681D4B5878FD23E7
:1098A000029300230193A0230093C2F30723D2B2B3
:1098B0004021FFF781F926E4412C7FF424AC154BBD
:1098C00093F8203083B9144B5A68114B5878FD2314
:1098D000029300230193AF230093C2F30723D2B274
:1098E0004121FFF769F90EE40B4B5A68084B587891
:1098F000FD23029300230193A0230093C2F30723C7
:10990000D2B24121FFF758F9FFF7FDBB3C00002020
:10991000BC44002048400020D445002010B584B04D
:1099200001282BD00446E1282ED0E0282FD0A0F12A
:109930001003DBB2092B46D8122805D0284B5B78E0
:10994000012B2BD0022B33D0FD2302930023019354
:1099500000932246E3211920FFF72EF94FF4FA7005
:10996000FBF7F6F9F8F7A2F90CE04FF480711D4807
:10997000F8F7E9FE4FF4FA70FBF7EAF9FDF714FE89
:109980000028F2D104B010BDF8F790F9FAE70122EF
:109990004FF480711348F8F7D0FEF3E70521124821
:1099A000FDF722FF0028CFD01220FFF7B7FFCBE74B
:1099B00005214FF00060FDF717FF0028C4D01220EA
:1099C000FFF7ACFFC0E7E428DCD1FD2302930022BF
:1099D000019200921346E4211920FFF7EDF8D1E738
:1099E00048400020000002400000080808B5104868
:1099F000104B0360104B1B689B09104AA2FB03230A
:109A00009B09013BC3600023436003618360FBF754
:109A10003FF820B90648FAF705FF20B908BDE02055
:109A2000FFF77CFFF6E7E020FFF778FFF6E700BFDF
:109A3000304600200018004048000020632D3E05FD
:109A400000B595B03022002108A802F0BAF8002332
:109A5000039304930593069307930193244A116C8F
:109A600041F080511164126C02F080520192019A0F
:109A70000293204B1A6842F440421A601B6803F4B8
:109A800040430293029B012308934FF480330993D0
:109A900002230E934FF480020F92192210924FF47A
:109AA000A872119212930723139308A8FAF7F2FAF7
:109AB000A8B90F23039302230493002305934FF4C3
:109AC000A05306934FF480530793052103A8FAF798
:109AD00031FD40B9FAF7D4FC15B05DF804FBE02085
:109AE000FFF71CFFE5E7E020FFF718FFF2E700BFF4
:109AF000003802400070004080B5A8B0F7F7D4F9F4
:109B0000FFF79EFFFEF788FAFFF770FFFDF74CFDA9
:109B100000286CD1FEF780FBFCF70EFF00286AD10D
:109B2000FCF7F2FFFDF786FE002868D1FEF728FC5F
:109B3000002868D100252695279526A8FBF711F95E
:109B4000334B18602495259524A8FBF70AF9314B6F
:109B50001860314C1DAE04F108070FCF0FC697E80F
:109B6000070086E8070029461DA8FBF7AEF82B4B37
:109B7000186016AE04F124070FCF0FC697E8070050
:109B800086E80700294616A8FBF79FF8244B1860C3
:109B90000FAE04F140070FCF0FC697E8070086E825
:109BA000070029460FA8FBF790F81E4B186008AE77
:109BB00004F15C070FCF0FC697E8070086E807009F
:109BC000294608A8FBF781F8174B186001AE7834D6
:109BD0000FCC0FC694E8070086E80700294601A8C5
:109BE000FBF773F8114B1860FBF76AF8FEE70120EA
:109BF000FFF794FE8EE7E020FFF790FE90E7E2206B
:109C0000FFF78CFE92E7E020FFF788FE92E700BFA7
:109C100024460020D0450020F8BB00084C47002017
:109C20002C460020944A00205C4500202846002055
:109C300038B5FEF74BFD06E01D4B93F85F30012B66
:109C40000BD0FBF779F81A4B93F86230002BF3D165
:109C5000174B012283F86220EEE7154B9B6DB3F59D
:109C6000AF6FEED340F2DC529342EAD8104B93F838
:109C70002830D3B90E4B002283F85F20E1E701358D
:109C8000EDB20AE0E120FFF749FE002CF2D1FEF729
:109C9000C7FD0228F3D00134E4B20A2DF2D8002D1A
:109CA000F3D00A20FBF754F8EFE700252C46ECE749
:109CB000484000202DE9F04784B04FF0000A574695
:109CC0005646D046D146554636E15A6FA14B9A4288
:109CD00000F238816DB3A04B93F87830012B4DD052
:109CE000042D40F027819D494B780A78A0200290EE
:109CF000C878019089780091B0211920FEF75CFFA7
:109D0000FEF7CCFA4FF4FA70FBF722F8F7F7CEFF24
:109D100010E1924A0021D1540133032BF9DD8E4B1F
:109D20005B78012B0BD0022B05D14FF000673E462C
:109D300007E00023F1E71120FFF7F0FD01E0884F75
:109D40003E4605213046FDF74FFD90B9FDF742FD37
:109D50004FF480718348F8F7F6FCFD23029300234B
:109D600001930093A022B0211920FEF725FF25467C
:109D7000E0E01220FFF7D2FD2C46E7E74FF48071B8
:109D80007848F8F7E0FC012D2AD0022D5CD0032D95
:109D900000F09D80704B002283F87820CAE0DA1C26
:109DA00071498A5CD9008A4048EA02080133DBB273
:109DB000032BF4D94FF480716A48F8F7C4FC6A4960
:109DC0000B79CA78A0200290887901904979009196
:109DD000B0211920FEF7F0FE614F3E460225D9E77B
:109DE0000023E5E7DA1C60498A5CD9008A40144305
:109DF0000133DBB2032BF5D9BAF1000F02D15B4B73
:109E00009C4224D14CB1AAF10703032B23D9BAF108
:109E10000D0F20D0BAF15F0F1DD0230D1B05B3F13C
:109E2000006F1BD00AF1FF33052B09D9AAF10E03ED
:109E3000502B05D9BAF10B0F02D0BAF10C0F0DD18E
:109E40001720FFF76BFD09E000231C46D2E717201F
:109E5000FFF764FD02E01720FFF760FD22460023B4
:109E600031460220F8F762FAE8B904360AF1010A2D
:109E70004FF480713B48F8F766FC3B490B79CA7890
:109E8000A02002908879019049790091B021192091
:109E9000FEF792FE08EB0703B3423FF67BAFF8F7FD
:109EA000EBF9032576E71320FFF738FDF2E716F804
:109EB000012B2A49C85C0244CA540133DBB2032B8C
:109EC000F5D908EB0703B34203D90023F7E73E4671
:109ED000F7E7002301E00133DBB2032B0BD81F4A65
:109EE000D15CDA1C2048825C9142F4D009F101096E
:109EF0005FFA89F9EFE7B9F1000F01D1042549E7CD
:109F000016494B780A78AF200290C878019089787A
:109F10000091B0211920FEF74FFE1420FFF7FEFC40
:109F2000042537E70C4B5A6F114B9A420CD9192074
:109F3000FFF7F4FCFAF700FF074B93F87040012C91
:109F40003FF4C3AE012CEDD0002CF3D10020FAF782
:109F500079FFEFE7BF27090048400020C04A0020F2
:109F600000000808000002405047002000000320C5
:109F7000C02709007047000000B583B0002200929E
:109F80000D4B596C41F480415964596C01F4804186
:109F9000009100990192196C41F0805119641B6C79
:109FA00003F080530193019B0F216FF00100F7F73D
:109FB0003BFE03B05DF804FB003802402DE9F041A0
:109FC00088B00023039304930593069307930268D4
:109FD00003F1804303F590339A4202D008B0BDE804
:109FE000F08105460027009703F58C335A6C42F444
:109FF00080725A645A6C02F480720092009A01973F
:10A000001A6B42F001021A631A6B02F0010201920C
:10A01000019A02971A6B42F004021A631B6B03F059
:10A0200004030293029B0323049308AC012344F826
:10A03000143D2A4E21463046F8F788FA022303934E
:10A0400021463046F8F782FA04230393214630462E
:10A05000F8F77CFA0823039321463046F8F776FA9E
:10A060004FF01008CDF80C8021463046F8F76EFA14
:10A070002023039321463046F8F768FA40230393E0
:10A0800021463046F8F762FA802303932146304692
:10A09000F8F75CFACDF80C8021461148F8F756FA2B
:10A0A0001048114B036047608760C7604FF48063BE
:10A0B00003614FF4805343614FF4804383614FF455
:10A0C0008073C3610762F7F77FFE18B9054BAB6376
:10A0D0009D6383E7FFF74EFFF8E700BF00000240F3
:10A0E00000080240084300201064024010B588B008
:10A0F0000023039304930593069307930268194B77
:10A100009A4201D008B010BD0021019103F5EA3355
:10A110001A6C42F000721A641A6C02F0007201921A
:10A12000019A02911A6B42F001021A631B6B03F051
:10A1300001030293029B4FF440730393022404949F
:10A14000032306930923079303A90748F8F7FEF9A9
:10A15000224605211420F7F767FD1420F7F798FD34
:10A16000D0E700BF0064004000040240F0B589B0B1
:10A170000023039304930593069307930268204BEF
:10A180009A4201D009B0F0BD002601961D4C236B08
:10A1900043F002032363236B03F002030193019B4B
:10A1A000802303931223049301250595032306932B
:10A1B00004230793144F03A93846F8F7C7F940233F
:10A1C000039303A93846F8F7C1F90296236C43F4C8
:10A1D00000132364236C03F400130293029B2A46AA
:10A1E00006212020F7F720FD2020F7F751FD02225D
:10A1F00006211F20F7F718FD1F20F7F749FDC1E7DB
:10A200000054004000380240000402400268094B3C
:10A210009A4200D0704782B000230193064B5A6CDB
:10A2200042F001025A645B6C03F001030193019B4D
:10A2300002B07047000001400038024000B587B00E
:10A240000023039304930268094B9A4202D007B09B
:10A250005DF804FB022302930123059306A94FF442
:10A26000007341F8143D0348F8F770F9EFE700BFB9
:10A27000000001400010024002680E4B9A4200D0DC
:10A28000704700B583B0002301930B4B1A6C42F06A
:10A2900040021A641B6C03F040030193019B0122EE
:10A2A00005212B20F7F7C0FC2B20F7F7F1FC03B0BA
:10A2B0005DF804FB001800400038024010B588B07B
:10A2C000002201462C20F7F7AFFC2C20F7F7E0FC2A
:10A2D00000240194144B1A6C42F080021A641B6C27
:10A2E00003F080030193019B02A903A8FAF7E8F9A0
:10A2F000FAF7D6F943000D48A0FB03239B0C013B62
:10A300000B480C4A026040F2E732C26043600461CD
:10A310008460FAF7BDFB10B1012008B010BD0448FD
:10A32000FAF780FAF9E700BF0038024083DE1B43EA
:10A33000044B0020001C0040164BDB6813F0800F1C
:10A3400000D1704700B58DB0124AD36843F40003C2
:10A35000D360002301930293059307930223009394
:10A360000122039210220492069308924FF4A872DD
:10A3700009920A9307230B936846F9F78BFE28B9D5
:10A38000E420FFF7CBFA0DB05DF804FBE020FFF707
:10A39000C5FAF5E700380240FEE7FEE7FEE7FEE714
:10A3A000704708B50420F8F7D7F908BD08B50120B3
:10A3B000F8F7D2F908BD08B50220F8F7CDF908BDC5
:10A3C00008B50248F7F7F2FA08BD00BF00440020C4
:10A3D00008B50248F9F7F2FC08BD00BF6844002048
:10A3E00008B50248F9F7B0FD08BD00BF6844002079
:10A3F00008B54FF40040F8F7AFF908BD08B50248BA
:10A40000FAF725FA08BD00BF3046002008B502481B
:10A41000FAF71DFA08BD00BF044B002008B502483A
:10A42000F7F780FD08BD00BF08430020054BD3F8B7
:10A43000882042F47002C3F888204FF000629A60CE
:10A44000704700BF00ED00E0DFF834D0002103E0EA
:10A450000C4B5B58435004310B480C4B42189A424A
:10A46000F6D30B4A02E0002342F8043B094B9A4220
:10A47000F9D3FFF7DBFF01F075FBFFF73DFB7047FA
:10A4800000000320F8BC000800000020B4000020F9
:10A49000B4000020444B0020FEE70000F0B52DED95
:10A4A000028B8BB055EC104B00F016FA364BB0EE29
:10A4B000408AF0EE608A93F90060731C0DD022464A
:10A4C0002B4620462946F6F7E9FA30B90022002348
:10A4D00020462946F6F7D8FA38B1B0EE480AF0EE31
:10A4E000680A0BB0BDEC028BF0BD284B0890CDE99B
:10A4F0000245CDE904450193B6B9254F4FF06046BA
:10A500002046294600220023CDE90667F6F794FA93
:10A5100088B302230093684601F0F2F998B1089BD2
:10A52000B3B99DED068BD8E71A4B0022CDE906237F
:10A530002046294600220023F6F77EFA68B102235E
:10A540009E420093E7D101F007FB22230360E6E778
:10A5500001F002FB089B0360E3E70123022E009356
:10A560000BD101F0F9FA212303600B4801F0CCF97B
:10A570008DED060BD3E701230093684601F0C0F987
:10A580000028F2D1EDE700BF4C000020CCBC000851
:10A59000FFFFEFC70000F0FFA8BC000800000000AC
:10A5A0002DE9F04F2DED028BDFF824A38BB057EC93
:10A5B000106B55EC114B00F06BFB9AF90080B0EE7C
:10A5C000408AF0EE608AB8F1FF3F33D022462B4636
:10A5D00020462946F6F762FA834658BB32463B4688
:10A5E00030463946F6F75AFA8146002866D1304699
:10A5F000394600220023F6F71FFA20B30022002379
:10A6000020462946F6F718FA834600287DD09FEDAC
:10A61000A67B0122AA4BCDF820900092CDE90267DB
:10A62000CDE904458DED067B0193B8F1000F5ED0B6
:10A630009FED9F8BB0EE480AF0EE680A0BB0BDECC0
:10A64000028BBDE8F08FB0EE480AF0EE680A01F028
:10A650004FF98046002800F082804FF000084FF04C
:10A66000000951EC180B42464B46F6F7E5F9002875
:10A67000E0D047EC106B01F03BF90028DAD045EC54
:10A68000104B01F035F90028D4D09AF900308C4AEB
:10A69000019204210022022BCDE90267CDE9044595
:10A6A000CDE906890091089203D0684601F028F9A7
:10A6B00010BB01F051FA222303601DE000220023A9
:10A6C00020462946F6F7B8F90028B3D09FED788BDD
:10A6D00001227B4BCDF820B0B8F1020F0092CDE9FA
:10A6E0000267CDE904458DED068B0193A2D0684643
:10A6F00001F006F9002878D0089B1BB101F02CFA74
:10A70000089B03609DED068B94E745EC104B01F030
:10A71000EFF800288ED00022002320462946F6F7C5
:10A7200095F9002886D0664A9AF90030CDF820B015
:10A730000121CDE90267CDE90445CDE90012002BE6
:10A7400058D060490020022BCDE9060156D101F016
:10A7500003FA21230360089B002BD3D0CEE747ECFC
:10A76000106B01F0C5F800283FF477AF45EC104BB3
:10A7700001F0BEF800283FF470AF53EC182B18EE30
:10A78000100A1946F6F78AF99AF9009000286FD155
:10A790000323DFF82CC108902946204600930022AD
:10A7A000494BCDF804C0CDE90445CDE90267F5F782
:10A7B000DBFE04460D46B9F1000F25D1DFF81491F8
:10A7C0004FF060480022002330463946CDE9068923
:10A7D000F6F73CF938BB684601F092F80028BAD188
:10A7E00001F0BAF922230360B5E701F0B5F921239E
:10A7F000036081E79FED2C7B8DED067B684601F0C1
:10A800007FF80028A7D1A2E79FED2B7B0022002331
:10A81000304639468DED067BF6F718F9B0B9B9F137
:10A82000020FDDD0D7E745EC104B01F075F822465A
:10A830002B4651EC100BF6F7FFF8B0B9234B9AF901
:10A8400000904FF06042CDE90623E8E745EC104B5D
:10A8500001F062F822462B4651EC100BF6F7ECF8AB
:10A8600018B9184B0022CDE906239AF90090D6E7D3
:10A870000122134BCDF820800092CDE90267CDE98B
:10A8800004450193B9F1000FB4D000220023104613
:10A890001946F5F793FFB9F1020FCDE906013FF430
:10A8A00056AFABE7AFF300800000000000000000EF
:10A8B000000000000000F03F000000000000F07FFA
:10A8C000D0BC00080000F0FF0000E03FFFFFEFC732
:10A8D0004C000020FFFFEF472DE9F04F51EC100B2B
:10A8E000B1F5801F85B00B4680F2CE8021F000428A
:10A8F000024300F0D8800029C0F2EA800022DE4B3B
:10A90000F5F732FEDD4A0B4693426FF0350700F350
:10A91000C180C3F3130505F5152606F6647606F423
:10A92000801686F07F5282F4401242EA05011C151F
:10A930000022D34BF5F760FCAB1CA4F2FF34C3F349
:10A9400013033C44022B04EB165482468B464FF013
:10A95000000240F3B3804FF08043F5F74FFC02460E
:10A960000B4650465946F5F729FF064620460F4646
:10A97000F5F790FD3246CDE902013B4630463946B7
:10A98000CDE90067F5F7F0FD02460B4680468946A3
:10A99000F5F7EAFDA2A3D3E9002306460F46F5F733
:10A9A000E3FDA1A3D3E90023F5F728FC32463B469B
:10A9B000F5F7DAFD9EA3D3E90023F5F71FFC324635
:10A9C0003B46F5F7D1FD9CA3D3E90023F5F716FC30
:10A9D00042464B46F5F7C8FD99A3D3E900238046CC
:10A9E000894630463946F5F7BFFD97A3D3E90023E2
:10A9F000F5F704FC32463B46F5F7B6FD94A3D3E9E0
:10AA00000023F5F7FBFB32463B46F5F7ADFD0B4661
:10AA1000024649464046F5F7F1FBA5F5C223C5F5C8
:10AA2000D725A3F27A4351351D43002D06460F4624
:10AA300040F38F800022934B50465946F5F794FD22
:10AA400052465B46F5F790FD02460B468046894626
:10AA500030463946F5F7D2FBDDE90023F5F784FDF2
:10AA600006460F46002C40F08B8002460B464046BF
:10AA70004946F5F7C1FB02460B4650465946F5F7E5
:10AA8000BBFB41EC100B0BE07C4A93424FF00007FC
:10AA90007FF73FAF02460B46F5F7B0FB41EC100BDA
:10AAA00005B0BDE8F08F0022002300207649F5F7BD
:10AAB00085FE41EC100B05B0BDE8F08F0023F5F7E3
:10AAC000BBFF80B1002C40F084809FED630BE7E773
:10AAD00010EE102AF5F790FB00220023F5F76EFE2A
:10AAE00041EC100BDCE75EA3D3E900235046594646
:10AAF000F5F73AFD02460B4600206249F5F77CFB6C
:10AB0000524606460F465B4650465946F5F72CFD21
:10AB100002460B4630463946F5F726FD06460F46F7
:10AB20002CB32046F5F7B6FC4FA3D3E900238046AB
:10AB30008946F5F719FD4EA3D3E9002304460D46D7
:10AB400040464946F5F710FD02460B463046394669
:10AB50002EE002460B4650465946F5F74DFBDDE91F
:10AB60000023F5F701FD06460F46002C4DD1324675
:10AB70003B4650465946F5F73FFB41EC100B8FE73B
:10AB800039A3D3E90023DDE90201F5F7EDFC38A391
:10AB9000D3E9002304460D46DDE90201F5F7E4FCA4
:10ABA00032463B46F5F72AFB02460B4640464946ED
:10ABB000F5F722FB52465B46F5F71EFB02460B46B5
:10ABC00020462946F5F718FB41EC100B05B0BDE80F
:10ABD000F08F2046F5F75EFC23A3D3E90023064659
:10ABE0000F46F5F7C1FC22A3D3E9002304460D4626
:10ABF00030463946F5F7B8FC02460B462046294652
:10AC0000F5F7FCFA41EC100B4AE7DDE9028916A3DF
:10AC1000D3E90023404649468BE700BFAFF30080ED
:10AC200044523EDF12F1C23FDE03CB966446C73F7B
:10AC3000599322942449D23F935555555555E53F94
:10AC40009FC678D0099AC33FAF788E1DC571CC3F9F
:10AC500004FA97999999D93F00000000000000007C
:10AC6000555555555555D53F0000E0FE422EE63F5F
:10AC7000763C7935EF39EA3D00005043FFFFEF7F26
:10AC80000000F03F0000E03F000050C30000000063
:10AC90002DE9F04F51EC110B21F0004555EA00036E
:10ACA00093B010D059EC108B6D4B29F000449C42AE
:10ACB0004E4610EE10AA0DDD04F1404404F5801458
:10ACC00054EA0A0356D16749002041EC100B13B037
:10ACD000BDE8F08F0F4611EE10CA48D09D42EBDC64
:10ACE0005F4B9D425FD0002ECDE900015FDB4FF04E
:10ACF000000BBCF1000F0ED1594B9D4243D0594B74
:10AD00009D4200F08C80B7F1804F00F09E80564B42
:10AD10009F4200F0B88349EC108B00F0DFFD51EC4E
:10AD2000100BBAF1000F06D1002C5AD04D4B26F073
:10AD300040429A4255D0F60F06F1FF3A5BEA0A0309
:10AD400073D04A4B9D4240F3998003F104739D42B6
:10AD500040F33884464B9C4272DD002F72DD3EA3E7
:10AD6000D3E9002310461946F5F7FEFBADE7B8F12D
:10AD7000000F05D03F4813B0BDE8F04F00F0C4BD50
:10AD8000A542F7DCACE704F1404303F5801353EA36
:10AD90000A0398D0364B9C4240F37F83002F51DB4F
:10ADA000DDE9000191E7BCF1000F9CD084E7324B54
:10ADB0009D4231DCA3F154739D4298DD2B15A3F223
:10ADC000FF33142B40F3A183C3F134032CFA03F2B5
:10ADD00002FA03F363458AD102F00102C2F1020BC9
:10ADE00087E7002F05DA02460B4600201D49F5F7DC
:10ADF000E5FC002EBFF669AF04F1404404F5801471
:10AE000054EA0B0300F03A84BBF1010F7FF45DAF0D
:10AE100001F10043194658E74FF0020B69E7002F94
:10AE2000C0F24483404649464FE742464B461046EF
:10AE30001946F5F7E1F902460B46F5F7BFFC44E782
:10AE4000002F8CDB002000213FE742464B46404666
:10AE50004946F5F789FB38E79C7500883CE4377E66
:10AE60000000F07F0000F03F0000E03F0000E04104
:10AE7000FFFFEF3FA8BC0008FFFF3F43B4F5801F72
:10AE800080F260830022D04BF5F76EFB6FF0340642
:10AE90000C462315CD4AC4F31304A3F2FF3344F048
:10AEA0007F559E1994420D9645F4401540F33D831D
:10AEB000C74B9C4240F301849FEDAD7B8DED087B39
:10AEC0008DED107B9FEDAC7B8DED067B01360D96F5
:10AED000A5F580154FF00008DDE906232946064652
:10AEE000F5F78AF9DDE90623CDE90A01304629465E
:10AEF000F5F784F902460B460020B649F5F75EFCEB
:10AF000003460C46CDE90E3402460B46DDE90A0144
:10AF1000F5F72AFB6B1043F0005303F500230A46B4
:10AF20002F46014603EB08050023CDE902120293E8
:10AF3000DDE902890024CDE904122B462246404671
:10AF40004946F5F711FB02460B46DDE90A01F5F724
:10AF500053F9DDE90623CDE90A0120462946F5F734
:10AF60004BF902460B4630463946F5F745F942465D
:10AF70004B46F5F7F9FA02460B46DDE90A01F5F70B
:10AF80003BF9DDE90E23F5F7EFFADDE90445CDE9FC
:10AF9000060122462B4620462946F5F7E5FA78A316
:10AFA000D3E9002304460D46F5F7DEFA76A3D3E98C
:10AFB0000023F5F723F922462B46F5F7D5FA74A3BB
:10AFC000D3E90023F5F71AF922462B46F5F7CCFA18
:10AFD00071A3D3E90023F5F711F922462B46F5F7C3
:10AFE000C3FA6FA3D3E90023F5F708F922462B46ED
:10AFF000F5F7BAFA6CA3D3E90023F5F7FFF8224678
:10B0000006460F462B4620462946F5F7ADFA02467E
:10B010000B4630463946F5F7A7FA424604460D4638
:10B020004B46DDE90401F5F7E9F8DDE90623F5F71C
:10B030009BFA22462B46F5F7E1F8424606460F46B4
:10B040004B4640464946F5F78FFA0022624BCDE960
:10B050000A01F5F7D3F832463B46F5F7CFF80298E8
:10B060000D46044622462B4640464946F5F77CFAF3
:10B07000002280468946584B20462946F5F7BCF801
:10B08000DDE90A23F5F7B8F802460B4630463946A3
:10B09000F5F7B2F8DDE90423F5F766FA224606462D
:10B0A0000F462B46DDE90601F5F75EFA02460B4630
:10B0B00030463946F5F7A2F806460F4602460B46DB
:10B0C00040464946F5F79AF8029839A3D3E9002398
:10B0D00004460D46F5F748FA4246CDE904014B46D1
:10B0E00020462946F5F788F802460B463046394691
:10B0F000F5F782F830A3D3E90023F5F735FA30A34A
:10B10000D3E9002306460F4620462946F5F72CFAD8
:10B1100002460B4630463946F5F770F8DDE9102354
:10B12000F5F76CF806460D980F46F5F7B3F9324679
:10B13000804689463B46DDE90401F5F75FF8DDE925
:10B140000823F5F75BF842464B46F5F757F80298A7
:10B1500042464B4604460D46F5F74EF8DDE9082316
:10B16000F5F74AF8DDE9042338E000BFAFF30080CB
:10B170000000000000000000000000000000F03FA0
:10B18000EF4E454A287ECA3F65DBC9934A86CD3FCC
:10B1900001411DA96074D13F4D268F515555D53FB2
:10B1A000FFAB6FDBB66DDB3F033333333333E33F4A
:10B1B000000000E009C7EE3FFD033ADC09C7EE3F9F
:10B1C000F5015B14E02F3EBE000040438E98030063
:10B1D00079B60B000000F03F00000840F5F70CF8CE
:10B1E0000B46024639463046F5F706F80BF1FF33B9
:10B1F00053EA0A03CDE9040100F05F819FEDD27BA1
:10B200008DED027BDDE900AB002356465F46CDE9BC
:10B2100000670093DDE90067504632463B465946D9
:10B22000F4F7EAFF22462B46F5F79EF95246804690
:10B2300089465B46DDE90401F5F796F902460B46BF
:10B2400040464946F4F7DAFF3246804689463B4697
:10B2500020462946CDE90489F5F786F90B460246D2
:10B2600006460F4640464946F4F7C8FFD04B994280
:10B2700004460D468A4640F3258101F13F4303F51C
:10B28000E003034340F0FE81B1A3D3E90023DDE9ED
:10B290000401F4F7B3FF3246804689463B46204618
:10B2A0002946F4F7A9FF02460B4640464946F5F702
:10B2B000EBFB002840F0E681A8464FEA2853A3F2B2
:10B2C000FE324FF4801313415344C3F30A52B94D75
:10B2D000A2F2FF321541C3F3130423EA0501002053
:10B2E000C2F1140B44F48014BAF1000F02460B466D
:10B2F00044FA0BFB30463946B8BFCBF1000BF4F7EC
:10B300007BFF06460F463246DDE904013B46F4F773
:10B3100075FF4FEA0B5A0D4600248FA3D3E9002393
:10B3200020462946F5F720F93246804689463B46B5
:10B3300020462946F4F760FF02460B46DDE904018A
:10B34000F4F75AFF86A3D3E90023F5F70DF986A396
:10B35000D3E9002306460F4620462946F5F704F9AF
:10B3600002460B4630463946F4F748FF06460F467C
:10B3700002460B4640464946F4F740FF42464B46DC
:10B3800004460D46F4F738FF02460B463046394670
:10B39000F4F732FF2246804689462B46204629464E
:10B3A000F5F7E2F872A3D3E9002306460F46F5F756
:10B3B000DBF871A3D3E90023F4F71EFF32463B46C6
:10B3C000F5F7D2F86EA3D3E90023F4F717FF32465E
:10B3D0003B46F5F7C9F86CA3D3E90023F4F70CFF5B
:10B3E00032463B46F5F7C0F869A3D3E90023F4F7EA
:10B3F00005FF32463B46F5F7B7F802460B462046B6
:10B400002946F4F7F9FE06460F4602460B4620464B
:10B410002946F5F7A9F80022CDE900014FF0804355
:10B4200030463946F4F7E8FE02460B46DDE90001F6
:10B43000F5F7C4F9424606460F464B4620462946D4
:10B44000F5F792F842464B46F4F7D8FE02460B4613
:10B4500030463946F4F7D0FE22462B46F4F7CCFEB0
:10B4600002460B4600205449F4F7C6FE8A44BAF55A
:10B47000801F02460B46C0F230815146DDE90223AF
:10B48000F5F772F821E4002EFFF645AC49EC108B7D
:10B4900013B0BDE8F04F00F057B9002FBFF6D2ACA3
:10B4A000DDE90034184604F100410EE442464B4603
:10B4B00000204149F5F782F907E49FED377B8DEDD8
:10B4C000027B9FE63D4B21F00048984540F3E88021
:10B4D0003B4B0B4403430AD132463B46F4F78CFE08
:10B4E000DDE90423F5F7C6FA00283FF4E6AEDDE90E
:10B4F00002012BA3D3E90023F5F736F828A3D3E9FB
:10B500000023F5F731F8FFF7E0BBBCF1000F40F086
:10B51000D080C3F1140345FA03F202FA03F3AB42FD
:10B5200000F0E380E346FFF7EABB9FED1F7B8DED64
:10B53000087B8DED107B9FED047B4FF000088DEDB7
:10B54000067BC9E40026A4E4000000000000F03FF0
:10B55000FE822B654715973C00000000432EE63F16
:10B56000EF39FAFE422EE63F396CA80C615C20BE32
:10B57000D0A4BE726937663EF16BD2C541BDBB3EF9
:10B580002CDE25AF6A56113F93BDBE166CC1663FD7
:10B590003E5555555555C53F000000000000F0BF11
:10B5A00059F3F8C21F6EA501000000000000000062
:10B5B000FFFF8F40FFFF0F000000F03FFFCB9040E8
:10B5C00000346F3F5C4B9C427FF73AAC5B4B9C4234
:10B5D0003FF7C3AB0022594BF4F70EFE46A3D3E965
:10B5E000002304460D46F4F7BFFF45A3D3E900232B
:10B5F0008046894620462946F4F7B6FF0022CDE969
:10B6000002014F4B20462946F4F7AEFF02460B4697
:10B610003DA1D1E90001F4F7EFFD22462B46F4F7F6
:10B62000A3FF02460B4600204649F4F7E5FD2246FB
:10B6300006460F462B4620462946F4F795FF02465C
:10B640000B4630463946F4F78FFF31A3D3E9002388
:10B65000F4F78AFF02460B46DDE90201F4F7CCFD60
:10B6600002460B4606460F4640464946F4F7C6FDDD
:10B67000002004460D4642464B46AFE502460B46C7
:10B68000FFF7D5BBDDE9020123A3D3E90023F4F7DB
:10B690006BFF21A3D3E90023F4F766FFFFF715BB87
:10B6A000284B98453FF709AEDDE9002392469346C3
:10B6B00032E64FF0000BFFF72EBB9FED197B8DEDAF
:10B6C000087B9FED197B8DED107B9FED197B4FF46F
:10B6D00080288DED067BFFF7FFBB584643EC102B0F
:10B6E00000F0A2F951EC100BC8E602F00102C2F121
:10B6F000020BFFF704BB00BF000000604715F73FD7
:10B7000044DF5DF80BAE543E555555555555D53F64
:10B71000FE822B654715F73F9C7500883CE4377E19
:10B720000000004003B8E23F06D0CF43EBFD4C3EA3
:10B73000000000000000F83FFEFFEF3F0000F03F78
:10B740000000D03F0000E03F2DE9F041624A57EC95
:10B75000106BBA4300F09580002F3B4610EE101A94
:10B76000344654DD3F1500F0AF80C3F31303A7F256
:10B77000FF3743F48013E20FF90702EB43034FEA6C
:10B78000440503D5ED0F05EB4303A50000267F100C
:10B79000B44616224FF400110CEB010098424FEA18
:10B7A000D5744FEA450503DC1B1A00EB010C0E446F
:10B7B000013A04EB43034FEA5101EDD1104696469E
:10B7C00020244FF0004209E052D05B00013C03EB23
:10B7D000D5734FEA52024FEA450536D0634502EB76
:10B7E0000E01F1DD002901EB020E0ADBE046A3EBBE
:10B7F0000C03A94288BF03F1FF336D1A1044C446FD
:10B80000E3E7BEF1000FF1DB0CF10108EFE727F0F1
:10B81000004232432AD0002F49D1CA0A153B4905BC
:10B82000002AFAD012F4801001D050E020465200D5
:10B83000D50200F10104F9D5C4F1200501FA04F4A0
:10B84000E9401F1A41EA02038FE72B4329D144083C
:10B850007110F30701F17F5101F5001148BF44F069
:10B86000004401EB0753224643EC102BBDE8F08166
:10B87000A942AAD8002901EB020EC2DB9846002398
:10B88000BBE710EE102A3B4610EE100A3946F4F7DB
:10B890006BFE32463B46F4F7B1FC41EC100BBDE8C1
:10B8A000F081421C16BF421C01365408D0E710EE4E
:10B8B000102A30463946F4F79FFC02460B46F4F74F
:10B8C0007DFF41EC100BD1E71A463B46AAE70C4638
:10B8D00020254FF0FF30B3E70000F07F51EC100B54
:10B8E00010EE102A21F0004343EC102B704700BFEC
:10B8F00010EE903A43F0004000F58010C00F704702
:10B9000000207047000000009FED010B704700BF52
:10B91000000000000000F87FF0B551EC100BC1F3FF
:10B920000A55A5F2FF32132A83B00B464FEAD176AF
:10B9300010EE104A2FDC002A4ADB394D154101EA8E
:10B940000507074323D06D0829400C430CD04FF462
:10B950008021132A23EA050541FA02F343EA05038D
:10B960000CBF4FF0004400242E4A02EBC6062046CE
:10B97000D6E90045024629462046F4F73FFCCDE9CA
:10B98000000122462B46DDE90001F4F735FC41ECCD
:10B99000100B03B0F0BD332A07DDB2F5806FF6D18E
:10B9A00010EE102AF4F72AFCF1E7A5F213454FF048
:10B9B000FF32EA401042EAD052081042D4D04FF091
:10B9C000804124EA020241FA05F542EA0504CBE788
:10B9D00021F000420243DAD0C1F313020243544281
:10B9E000104D1443240B05EBC6004F0C04F400214A
:10B9F000D0E900457F0410EE102A41EA07032046F3
:10BA00002946F4F7FBFBCDE900012B462246DDE990
:10BA10000001F4F7F1FB21F0004343EAC671B6E7F9
:10BA2000FFFF0F00D8BC000838B553EC102BC3F350
:10BA30000A511C46054629BB10EE101A23F000449B
:10BA400021431ED019460022394B3A4C10EE100A01
:10BA5000F4F78AFDA54202460B4636DB0C46C1F3DD
:10BA60000A513639294440F2FE70814235DC002902
:10BA700014DD24F0FF4424F4E00444EA015343ECD1
:10BA8000102B38BD40F2FF708142EBD110EE100A4E
:10BA90001946F4F7B3FB41EC100B38BD11F1350F2B
:10BAA0001EDA4CF250318D4243EC112B28DD9FED14
:10BAB0001C0B00F043F81AA3D3E9002351EC100B40
:10BAC000F4F752FD41EC100B38BD17A3D3E9002366
:10BAD000F4F74AFD41EC100B38BD43EC112BE6E7BF
:10BAE00024F0FF4424F4E004363144EA01531046C4
:10BAF00019460022104BF4F737FD41EC100B38BD0E
:10BB00009FED090B00F01AF807A3D3E9002351ECCD
:10BB1000100BF4F729FD41EC100B38BDAFF300809A
:10BB20009C7500883CE4377E59F3F8C21F6EA5016E
:10BB300000005043B03CFFFF0000903C53EC102B42
:10BB400011EE900A23F0004100F0004041EA0003AA
:10BB500043EC102B704700BF014B1868704700BFC3
:10BB60005000002070B50D4E0D4CA41BA4100025F4
:10BB7000A54209D10B4E0C4C00F02CF8A41BA410CC
:10BB80000025A54205D170BD56F8253098470135EE
:10BB9000EEE756F8253098470135F2E7F0BC00088B
:10BBA000F0BC0008F0BC0008F4BC000810B5431E4F
:10BBB0000A44914200D110BD11F8014B03F8014F26
:10BBC000F7E702440346934200D1704703F8011B94
:10BBD000F9E70000F8B500BFF8BC08BC9E46704706
:0CBBE000F8B500BFF8BC08BC9E467047DA
:10BBF0000006101600061016FE014A19A00000FDEE
:10BC0000C4BC0008F58B0008FDFF00000000000028
:10BC1000800000000000000000000000C0BC000820
:10BC200011840008FDFF00000000000080000000FB
:10BC30000000000000000000B8BC0008319C0008B3
:10BC4000FDFF000000000000800000000000000078
:10BC500000000000B0BC0008BD900008FDFF00001F
:10BC60000000000080000000000000000000000054
:10BC7000ACBC0008B59C0008FDFF000000000000FF
:10BC80008000000000000000000000000000000034
:10BC9000000000000102030406070809000000007C
:10BCA0000102030449444C45000000006F74610028
:10BCB00063616E527800000063616E54780000008A
:10BCC000616463006D61696E540000006C6F670011
:10BCD000706F77000000000000000000000030439B
:08BCE00000000000000030C369
:08BCE800F04EFF7F0100000097
:04BCF000D501000872
:04BCF400B101000892
:10BCF8000100000010000000AAAAAAAA8000000003
:10BD080054543A78782E7820432020204D4F4445CB
:10BD18000000000043543A78782E782043202020F1
:10BD28006D6D6D6D00000000020000000100000054
:10BD380000009040010000000024F4000100000011
:10BD48005400002000000000000000000000000077
:10BD580000000000000000000000000000000000DB
:10BD680000000000000000000000000000000000CB
:10BD780000000000000000000000000000000000BB
:10BD880000000000000000000000000000000000AB
:10BD9800000000000000000000000000000000009B
:04BDA8000000000097
:040000050800A44902
:00000001FF
